:020000040800F2
:100000003807002001010008CF1000084B1000083D
:10001000CD100008E1010008E11300080000000015
:10002000000000000000000000000000D3100008E5
:100030000D02000800000000D1100008D5100008D3
:100040001B0100081B0100081B0100081B01000820
:100050001B0100081B0100081B0100081B01000810
:100060001B0100081B0100081B0100081B01000800
:100070001B0100081B0100081B0100081B010008F0
:100080001B0100081B0100081B0100081B010008E0
:100090001B0100081B0100081B0100081B010008D0
:1000A0001B0100081B0100081B0100081B010008C0
:1000B0001D1100081B0100081B0100081B0100089E
:1000C0001B0100081B0100081B0100081B010008A0
:1000D0001B010008051300081B0100081B01000894
:1000E0001B0100081B0100081B010008DFF80CD0F1
:1000F00000F064F80048004719160008380700208F
:100100000648804706480047FEE7FEE7FEE7FEE7B1
:10011000FEE7FEE7FEE7FEE7FEE7FEE71B1100084D
:10012000ED00000840EA01039B0703D009E008C97D
:10013000121F08C0042AFAD203E011F8013B00F8AC
:10014000013B521EF9D27047D2B201E000F8012BF8
:10015000491EFBD270470022F6E710B513460A4647
:1001600004461946FFF7F0FF204610BD30B505469E
:100170002A460B4612F8010B13F8014B08B1A042B6
:10018000F8D01CB1002802D06D1CF1E7284630BD24
:1001900030B50B46014600202022012409E021FA57
:1001A00002F59D4205D303FA02F5491B04FA02F554
:1001B0002844151EA2F10102F1DC30BD064C074DAA
:1001C00006E0E06840F0010394E807009847103427
:1001D000AC42F6D3FFF78EFF7416000894160008A1
:1001E000FEE730B590F840500124AC40C56B6C6020
:1001F000046863604368102B036803D0996000684B
:10020000C26030BD9A600068C16030BD70470000B8
:1002100010B501460348FFF7A9FF002800D00120D0
:1002200010BD0000EB01002010B590F82110002255
:10023000022905D00421816380F82020012010BD0F
:1002400001680B6823F00E030B6001680B6823F054
:1002500001030B6090F84030C46B012101FA03F3F5
:10026000636080F8211080F82020104610BD70B522
:10027000044690F82000002501280CD0012084F8C5
:10028000200094F821600020012E06D084F8200080
:100290000225284670BD022070BD022684F8216028
:1002A000A0632068066826F0010606602046FFF776
:1002B00098FF2068016841F001010160E9E770B52D
:1002C000044690F82000002501280CD0012084F875
:1002D000200094F821600020012E06D084F8200030
:1002E0000225284670BD022070BD022684F82160D8
:1002F000A0632068066826F0010606602046FFF726
:1003000070FFE06A00282068016802D041F00E0109
:1003100006E021F0040101602068016841F00A0153
:1003200001602068016841F001010160D9E7000027
:1003300070B5044600F0FEF80546601C02D0044883
:100340000078044400F0F6F8401BA042FAD370BDD8
:10035000040000202DE9F84FDFF8B891002409F1DE
:10036000040A0AF1040B23460F270BF1040EC9E01F
:100370000125A5402A40AA427DD1674ED1F804C08C
:10038000ACEB0608B44532D014DCBCF1030F3AD014
:1003900009DCBCF1000F2AD0BCF1010F1CD0BCF16C
:1003A000020F31D11DE0BCF1110F17D0BCF1120FBB
:1003B0002AD119E0B8F5881F19D006DCB8F5803FBE
:1003C00015D0B8F5801F1FD111E0B8F5001F0ED071
:1003D000B8F5041F18D10AE0CB6815E0CB681B1DE7
:1003E00012E0CB6808330FE0CB680C330CE08B686D
:1003F0002BB1012B4FF0080303D0456104E0042327
:1004000002E0056100E00023FF2A01D8064601E072
:1004100000F104064FEA840501D9A5F12005D6F8BC
:10042000008007FA05FC28EA0C0803FA05F548EAFB
:100430000508C6F800804D68ED0062D5374DAE69FD
:1004400046F00106AE61AD6924F0030605F0010532
:100450000095334D06EB050CDCF80850A607360F67
:1004600007FA06F825EA0805DFF8B880404503D109
:100470004FF0000817E044E0DFF8AC80404502D1BF
:100480004FF001080FE0DFF8A480404502D14FF0A3
:10049000020808E0DFF89880404502D14FF00308D9
:1004A00001E04FF0040808FA06F848EA0508CCF81D
:1004B00008804D68D9F80060ED034D4601D516431C
:1004C00000E096432E604D68DAF80060AD035546B3
:1004D00001D5164300E096432E604D68DBF80060BE
:1004E000ED025D4601D5164300E096432E604D684F
:1004F000DEF80060AD02754601D5164300E0964374
:100500002E60641C0D682A46E5407FF431AFBDE8DB
:10051000F88F00000004014000001110001002409C
:100520000000014000080140000C014000100140A3
:10053000001401400148806870470000040000205A
:1005400002488168027811448160704704000020ED
:10055000074810B5016841F010010160032000F068
:1005600075F8002000F006F800F024F8002010BD17
:100570000020024070B50D4D04464FF47A71287882
:10058000B1FBF0F00A490968B1FBF0F000F0ECFAB9
:1005900048B9102C07D200222146501E00F036F830
:1005A00000206C6070BD012070BD000004000020C0
:1005B000100000200C4808B5816941F001018161FB
:1005C000816901F001010091C16941F08051C1616F
:1005D000C06900F0805000900448416821F0E0615B
:1005E00041F00071416008BD001002400000014070
:1005F000002809DB00F01F02012191404009800022
:1006000000F1E020C0F8001170470000F0B40E4B7C
:100610001B680C46C3F30223C3F10705042D00D960
:100620000425191D072901D2002300E0DB1E012645
:1006300006FA05F1491E214099409E40761E16405B
:100640003143F0BC00F0DEBE0CED00E0064900F0E6
:10065000070208684FF6FF03184040EA0220034AE9
:1006600010430860704700000CED00E00000FA0540
:100670002DE9F0470F46050061D0434E306800F089
:100680000700B84209D2306820F0070038433060D4
:10069000306800F00700B84251D128683B4C810710
:1006A00012D5400703D5606840F4E06060602878A8
:1006B000000703D5606840F4605060606068A96816
:1006C00020F0F000084360602878C00728D06868F0
:1006D000012810D02168022810D0890700292EDABD
:1006E000616821F0030101436160FFF723FF804649
:1006F00041F288390DE021688903EFE78901EDE7D0
:10070000FFF718FFA0EB0801494502D90320BDE817
:10071000F0876068696800F00C00B0EB810FEFD1E2
:10072000306800F00700B8420BD9306820F00700AD
:1007300038433060306800F00700B84201D0012033
:10074000E5E72878400705D56068E96820F4E060AF
:10075000084360602878000706D56068296920F49E
:10076000605040EAC100606000F038F86168084AF3
:10077000C1F30311515CC84006490860064800688F
:10078000FFF7F8FE0020C2E7002002400010024000
:100790005C160008100000200800002004480549ED
:1007A00000684968044AC1F30221515CC84070479F
:1007B00010000020001002406C1600080448054993
:1007C00000684968044AC1F3C221515CC8407047BF
:1007D00010000020001002406C16000812A185B025
:1007E0000FC98DE80F0014A0144A006804905168E6
:1007F000134801F00C03042B10D0082B0ED1C1F3C9
:100800008343C9031DF803000AD5516804AAC1F344
:100810004041515C0A4A5043B0FBF1F005B07047CB
:1008200008494843FAE700000203040506070809DF
:100830000A0B0C0D0E0F10100102000000100240F8
:1008400000127A0000093D002DE9F84F040070D035
:100850002078C04DC00749D06868C0F381000128E6
:1008600007D06868C0F38100022809D16868C00316
:1008700006D52868800339D560680028E7D035E0C0
:100880006068B0F5803F0BD010B1B0F5A02F11D04B
:10089000286820F480302860286820F4802002E056
:1008A000286840F480302860606890B1FFF742FE0D
:1008B00006460AE0286840F480202860F0E700BF80
:1008C000FFF738FE801B642873D828688003F7D5AB
:1008D0000CE0FFF72FFE064605E000BFFFF72AFEFB
:1008E000801B6428F0D828688003F7D420789A4EBB
:1008F00080074FF001094FF0000839D5686810F003
:100900000C0F07D06868C0F38100022809D168681D
:10091000C00306D42868800714D52069012808D1AF
:1009200010E02069B0B1C6F80090FFF703FE07465B
:1009300005E00AE1FFF7FEFDC01B0228C4D82868C5
:100940008007F7D52868616920F0F80040EAC10007
:1009500028600DE0C6F80080FFF7ECFD074604E0D4
:10096000FFF7E8FDC01B022823D828688007F7D4CA
:10097000207800072CD57948A169D9B1C0F800903A
:10098000FFF7D8FD074604E0FFF7D4FDC01B02289F
:100990000FD8686A8007F7D571484FF4FA5100689C
:1009A000B0FBF1F0009000BF0098411E0091FAD218
:1009B0000EE080E0C0F80080FFF7BCFD074604E0D1
:1009C000FFF7B8FDC01B022875D8686A8007F7D406
:1009D0002078400760D5E8690027C00008D4E8699E
:1009E00040F08050E861E869012700F080500090F5
:1009F0005C480168C90513D40168834641F48071DD
:100A00000160FFF797FD824606E000BFFFF792FD09
:100A1000A0EB0A0064284ED8DBF80000C005F5D52D
:100A2000E06801280AD008B1052813D0286A20F010
:100A300001002862286A20F0040002E0286A40F0E1
:100A400001002862E06841F2883B98B1FFF772FD2F
:100A500082460BE0286A40F004002862EEE700BFFF
:100A6000FFF768FDA0EB0A0159455AD8286A8007AC
:100A7000F6D50CE0FFF75EFD824605E0FFF75AFD74
:100A8000A0EB0A0159454CD8286A8007F6D41FB15B
:100A9000E86920F08050E861E06988B36968C1F3D3
:100AA0008101022944D00228C6F8608004D0FFF7F3
:100AB00041FD044638E034E0FFF73CFD074604E022
:100AC000FFF738FDC01B02282BD828688001F7D417
:100AD000206AB0F5803F05D16868A16820F4003035
:100AE00008436860D4E908010843696821F4741177
:100AF00008436860C6F86090FFF71CFD044606E0F6
:100B000025E000BFFFF716FD001B022809D8286862
:100B10008001F7D51BE000BFFFF70CFD001B02288A
:100B200002D90320BDE8F88F28688001F4D40EE0D4
:100B30000128F7D06868226A00F48031914204D11C
:100B4000616A00F47010884201D00120EAE70020B9
:100B5000E8E70000001002400000424280044242E8
:100B6000100000200070004010B5401EB0F1807FE2
:100B700001D3012010BD4FF0E02460610F21601708
:100B800000F040FC0020A06107202061002010BD83
:100B900070477047704770B50446006801694FF0B0
:100BA0000005C943890715D4C168C943890711D411
:100BB000E91E0161012020772068806980072046B6
:100BC00002D0FFF7E7FF04E000F098F8204600F0BD
:100BD00096F8257720680169C943490717D4C16889
:100BE000C943490713D46FF0040101610220207743
:100BF0002068806910F4407F204602D0FFF7CAFFCA
:100C000004E000F07BF8204600F079F825772068B2
:100C10000169C943090716D4C168C943090712D439
:100C20006FF008010161042020772068C069800707
:100C3000204602D0FFF7AEFF04E000F05FF8204648
:100C400000F05DF8257720680169C943C90617D40B
:100C5000C168C943C90613D46FF0100101610820AF
:100C600020772068C06910F4407F204602D0FFF74B
:100C700091FF04E000F042F8204600F040F82577AC
:100C800020680169C943C90708D1C168C943C907B8
:100C900004D1891E0161204600F032F82068016904
:100CA000C943090609D4C168C943090605D46FF0D0
:100CB000800101612046FFF76BFF20680169C9438D
:100CC000490609D4C168C943490605D46FF04001FB
:100CD0000161204600F028F820680169C9438906AF
:100CE0000BD4C168C943890607D46FF020010161A4
:100CF0002046BDE87040FFF74CBF70BD704770479D
:100D000010B50068B0F1804F08D10221044800F00E
:100D10009DF904496FF001000968086110BD0000E9
:100D200002000020EC020020704710B50446006865
:100D3000416994F83920C1F3C011212A0BD151B176
:100D4000416921F080014161206B08B1FFF76CFA25
:100D5000204600F03FFA2068416994F83A20C1F338
:100D60008011222A0BD151B1416921F0400141612A
:100D7000606B08B1FFF758FA204600F01DFA00201A
:100D800010BD704770B5040004D094F839000025F8
:100D900010B106E0012070BD84F83850204600F004
:100DA00023F8242084F839002068C16821F4005118
:100DB000C160204600F018FA2068016921F49041D2
:100DC00001612068416921F02A0141612068C16800
:100DD00041F40051C160E563202084F8390084F8B3
:100DE0003A00002070BD00002DE9F84F064600686B
:100DF0003149324C324D334F4FF0000B4FF0020966
:100E00004FF0010A4FF0030888422CD1A06940F44A
:100E10008040A061A06900F480400090A06940F08B
:100E20000400A061A06900F0040000904815C5F816
:100E30000C8085E8010629463846FFF78BFA201515
:100E4000C5E9000B29463846FFF784FA3068C168C7
:100E500041F01001C1602520FFF7CAFB01220021EB
:100E60002520FFF7D3FB18493068884221D1E0697B
:100E700040F40030E061E06900F400300090A069C7
:100E800040F00400A061A0690D4900F0040000904A
:100E90000420C5F80C8085E801063846FFF75AFAA9
:100EA0000820C5E9000B3846BDE8F84F0449FFF7B4
:100EB00051BABDE8F88F0000003801400010024030
:100EC000180000200008014000440040F8B5044626
:100ED00090F83A0020283CD1C1B3BAB394F8380056
:100EE000012836D0012084F83800A162A2850025AF
:100EF000E563222084F83A00636B17489862636BBD
:100F00001648D862636B16481863606B13464563D6
:100F10000846666B216802463046091DFFF7CFF987
:100F2000206801684168009184F83850C16841F434
:100F30008071C1602068416941F001014161206810
:100F4000416941F0400141610020F8BDFFE7012007
:100F5000FBE70220F9E7000073110008AF11000859
:100F6000291100080068084988420BD142680849E5
:100F7000064B08881A54401C80B20880FF2801D90B
:100F8000002008807047000000380140EC0000207D
:100F900000000020704700002DE9F843044690F857
:100FA00039001F4616460D4620284CD1C5B1BEB1AA
:100FB00094F83800012846D0012084F838004FF01A
:100FC0000008C4F83C80212084F83900FFF7B2FA09
:100FD000A6848146E684A068B0F5805F03D004E073
:100FE0000120BDE8F883206928B12E465FF0000596
:100FF00084F838800EE00026FAE78021204600F0D1
:101000004FF9A0B9AEB116F8010B21684860E08C29
:10101000401EE084E08C4B464FF000020097002811
:10102000EBD14FF04001204600F03AF930B10320F7
:10103000D7E735F8020BC0F30800E6E7202084F874
:1010400039000020CDE70220CBE7FEE72DE9F0478D
:1010500078268846814615A704244FF4FA75414640
:1010600013A000F0BFF92846FFF762F9641EE4B24E
:1010700004D33846FFF7CCF80028F0D0042410A79A
:101080004FF6FF784346324649460F48FFF784FF44
:101090002846FFF74DF9641EE4B204D33846FFF743
:1010A000B7F80028EED0BDE8F08700004F4B0000F5
:1010B00041542B43495053454E443D25640D0A008D
:1010C00053454E44204F4B0028000020FEE7704758
:1010D00070477047FFF734BA10B590B028216846C2
:1010E000FFF739F814210AA8FFF735F8022000901D
:1010F0000120049010200024059007946846FFF713
:10110000A3FB0F20CDE90A040C940D9400210AA83A
:101110000E94FFF7ADFA10B010BD70470148FFF70D
:101120003ABD0000EC02002070B5446A20684069B6
:1011300094F83910C0F3C0100025212904D118B14A
:10114000E584204600F046F82068406994F83A109B
:10115000C0F38010222904D118B1E585204600F0A3
:101160002BF8E06B40F01000E0632046FFF709FE2B
:1011700070BD10B50146406A09680968890613D434
:101180000021C1850168CA6822F48072CA600168C2
:101190004A6922F001024A6101684A6922F040026C
:1011A0004A61202180F83A10FFF7DCFE10BD10B52F
:1011B000406AFFF7EFFE10BD0168CA6822F4907222
:1011C000CA6001684A6922F001024A61202180F860
:1011D0003A1070470168CA6822F0C002CA60202134
:1011E00080F839107047000070B504460068016946
:1011F000E26821F44051114301612169A06808436C
:10120000616908432168CA6841F20C639A4302434A
:10121000CA6020684169A26921F4407111434161AB
:101220001E492068884202D1FFF7C8FA01E0FFF7A3
:10123000B5FA00EBC00101EB001260686421800088
:10124000B2FBF0F3B3FBF1F36FF018067343B2FB9C
:10125000F0F5B2FBF0F605EB8305322303EB051541
:10126000B5FBF1F5B6FBF1F605F0F00505EB06155B
:10127000B2FBF0F6B2FBF0F0B0FBF1F06FF0180249
:10128000504306EB800003EB0010B0FBF1F0216847
:1012900000F00F002844886070BD00000038014055
:1012A0002DE9F041984617460E460446069D1DE07E
:1012B000681C1BD02DB1FFF73DF9A0EB0800A84238
:1012C00014D92068C16821F4D071C16020684169D7
:1012D00021F001014161202084F8390084F83A00AE
:1012E000002084F838000320BDE8F0812068006801
:1012F00036EA000004D00020B842D9D00020F3E73D
:101300000120F9E770B5204C20680168C9438906BF
:1013100002D46FF02001016020680068C043C0065D
:1013200031D41948FFF701FD174840300068406884
:101330001549C0F1FF0085B2C4312A4601F1FF0012
:10134000FEF7F0FE10494FF6FF73C4312A46A1F1B3
:101350004000FFF721FE0C48FF21C430FEF7FBFEE2
:101360000949FF22C4310848FFF7B0FD074801686A
:10137000054AFF23C432A2F18400FEF778FF2168FA
:101380006FF01000086070BD280000200438014094
:1013900030B400210C224FF4E13301280DD0022893
:1013A00016D10D480B4C0460C0E90131C1600161E8
:1013B000C0E9052130BCFFF7E5BC0748074C84387D
:1013C0000460C0E90131C1600161C0E90521F1E7B4
:1013D00030BC704700440040AC00002000380140A1
:1013E000FEE700000FB4054B10B503A9044A0298AC
:1013F00000F028F810BC5DF814FB0000FD15000893
:10140000140000200907090E002804DB00F1E02089
:1014100080F80014704700F00F0000F1E02080F821
:10142000141D704702E008C8121F08C1002AFAD133
:1014300070477047002001E001C1121F002AFBD154
:10144000704700002DE9FF4F8BB09A460F460546C6
:10145000002606E025280BD052460D9990476D1CBA
:10146000761C28780028F5D10FB03046BDE8F08F03
:101470000024A0460122604900E0044315F8013F22
:10148000203B02FA03F00842F7D128782E2817D122
:1014900015F8010F44F004042A280ED06FF02F0233
:1014A0002878A0F1300109290AD808EB880102EB5D
:1014B000410100EB01086D1CF2E757F8048B6D1C2D
:1014C000287869283ED006DC0028CDD063280BD0D0
:1014D000642804D136E0732810D075284BD05246CA
:1014E0000D999047761C85E017F8040B8DF80000E5
:1014F00000208DF80100E946012003E057F8049B25
:101500004FF0FF3061074FF0000401D40AE0641C83
:1015100044450DDA8442FADB19F804100029F6D1AB
:1015200006E0641C8442FCDB19F804100029F8D1A1
:10153000264404E019F8010B52460D999047641EA9
:10154000F8D257E001CF4FF00A0B002802DA4042F0
:101550002D2102E0210504D52B218DF82410012135
:1015600003E0E10705D02021F7E70DF120090891FC
:101570000CE00021F9E701CF4FF00A0BF9E75946DB
:10158000FEF706FE01F1300209F8012D0028F6D120
:10159000ADEB090000F1200B600701D44FF001080A
:1015A000D84502DDA8EB0B0000E0002080460024B7
:1015B00006E009A85246005D0D999047641C761C10
:1015C00008988442F5DB04E0302052460D9990479C
:1015D000761CB8F10001A8F10108F5DC05E019F866
:1015E000010B52460D999047761CBBF10001ABF1FF
:1015F000010BF4DC6D1C34E70928010008B54FF637
:10160000FF738DF80000012269460248FFF7C4FC11
:1016100008BD00002800002008B5FEF799FFFFF77D
:101620005BFD0220FFF7B4FE4FF6FF73062207A111
:101630000848FFF7B1FC0848816941F00401816165
:10164000806900F004000090FEE7000052656164CC
:1016500079210000AC0000200010024000000000D2
:101660000000000001020304060708090000000052
:101670000102030494160008000000201800000076
:1016800024140008AC1600081800002020070000F1
:10169000341400080000C000010000001000000029
:0C16A000000000000024F4000000000026
:04000005080000ED02
:00000001FF
