:020000040800F2
:1000000020080020010100089F1400089B1400082C
:100010009D140008090600080919000800000000E6
:10002000000000000000000000000000E7140008CD
:100030003506000800000000E5140008E914000877
:100040001B0100081B0100081B0100081B01000820
:100050001B0100081B0100081B0100081B01000810
:100060001B0100081B0100081B0100081B01000800
:100070001B0100081B0100081B0100081B010008F0
:100080001B0100081B0100081B0100081B010008E0
:100090001B0100081B0100081B0100081B010008D0
:1000A0001B0100081B0100081B0100081B010008C0
:1000B000311500081B0100081B0100081B01000886
:1000C0001B0100081B0100081B0100081B010008A0
:1000D0001B0100087D1800081B0100081B01000817
:1000E0001B0100081B0100081B010008DFF80CD0F1
:1000F00000F078FA0048004749190008200800205D
:100100000648804706480047FEE7FEE7FEE7FEE7B1
:10011000FEE7FEE7FEE7FEE7FEE7FEE72F15000835
:10012000ED000008202A04DB203A21FA02F0002129
:10013000704721FA02F3D040C2F1200291400843F7
:100140001946704740EA01039B0703D009E008C93C
:10015000121F08C0042AFAD203E011F8013B00F88C
:10016000013B521EF9D27047D2B201E000F8012BD8
:10017000491EFBD270470022F6E710B513460A4627
:1001800004461946FFF7F0FF204610BD2DE9FE4F4B
:10019000804681EA0300C00F0C46009021F0004128
:1001A00023F00045B8EB0200A94105D240462146A4
:1001B00090461C460B46024623F00040104347D0B1
:1001C000270DC7F30A00C3F30A510290401A0190A9
:1001D00040286BDAC3F3130040F4801B009892466A
:1001E00020B10023D2EB030A63EB0B0B01985946B5
:1001F000C0F14002504600F077F906460D465046E1
:100200005946019A00F07FF910EB08006141002483
:1002100087EA115284EAE7731A4340D0009A62B326
:10022000019A012A4FEA075215DC001B61EB02011B
:100230004FF0004202EA0752CDE90042001C41F5AE
:10024000801132462B4600F07FF903B0BDE8F08FF5
:1002500040462146F9E7001B61EB0201001C41F515
:10026000801300185B412018A2F5001747EB03012B
:1002700040EAD570B6196D4111E06D084FEA3606B7
:1002800045EAC0754FEA0752001B61EB0201001CF2
:1002900041F5801149084FEA3000001951413246BA
:1002A0002B4603B0BDE8F04F00F03FB900980122A3
:1002B00040000023D0EB020263EBE073009821467C
:1002C0004FEAE074B8EB000061EB0401E9E783F06A
:1002D00000435BE781F0004158E72DE9FE4F81EADA
:1002E000030404F0004421F0004100944FF0000B9F
:1002F00023F0004350EA01045ED052EA03045BD0CD
:10030000C3F30A54C1F30A552C44A4F2F334019404
:10031000A0FB0254C1F3130141F48011C3F3130392
:1003200043F4801301FB024400FB034E840A970A46
:1003300044EA815447EA8357A4FB076802958D0A73
:1003400005FB07854FEA932C04FB0C542705029DFF
:100350004FEA065847EA1637B5EB08056EEB070C6F
:10036000870E920E47EA811742EA8312A7FB020129
:10037000B6EB0B0164EB00042B0D43EA0C335E1863
:1003800044EB1C50DA465146E7FB0201C5F3130467
:100390004FEA0B3343EA14534FEA0432019C43EA19
:1003A0000603A4F10C040294009CCDE900B400F013
:1003B000CBF803B0BDE8F08F00200146F9E72DE946
:1003C000F04D81EA030404F0004B21F0004514468F
:1003D0004FF0000A23F0004150EA050220D054EA11
:1003E00001021DD0C5F30A570246C5F31303C1F33A
:1003F0001300C1F30A5640F4801543F48013A7EBB1
:100400000608101BD64608F2FD3873EB050002D330
:1004100008F1010801E092185B41B8F1000F03DA1E
:1004200000200146BDE8F08D00204FF48011064603
:1004300084460EE0171B73EB050705D3121B63EB15
:10044000050306434CEA010C49084FEA30009218B4
:100450005B4150EA0107EDD152EA030012D082EA73
:10046000040083EA0501084305D0101BAB4106D206
:100470000122002306E000224FF0004302E06FF06B
:10048000010253101AEB06004CEB085110EB0A0066
:1004900041EB0B01BDE8F04D00F047B80EB540F25E
:1004A000334102910021CDE900110A460B4600F0CC
:1004B0004BF803B000BDC1F30A5210B5C1F31301EC
:1004C00040F2FF3341F480119A4201DA002010BD5E
:1004D00040F233439A42A2F2334203DC5242FFF726
:1004E00021FE10BD904010BD202A04DB203A00FA06
:1004F00002F1002070479140C2F1200320FA03F37B
:10050000194390407047202A06DBCB17203A41FA66
:1005100002F043EAE07306E041FA02F3D040C2F190
:100520002002914008431946704710B5141E73F11C
:10053000000408DA401C41F1000192185B411A43A3
:1005400001D120F0010010BD2DE9F04D92469B46EF
:1005500011B1B1FA81F202E0B0FA80F22032904695
:10056000FFF7C2FF04460F4640EA0A0041EA0B01CA
:1005700053465A46084313D0114653EA010019D096
:10058000C8F140025046FFF7CDFD05460E465046E5
:1005900059464246FFF7A8FF084305D0012004E072
:1005A00020463946BDE8F08D0020054346EAE07656
:1005B0002C4337430A986305E40AA0EB08000022A5
:1005C000FD0A44EA47540A3002D500200146E9E713
:1005D000010510196941DDE9084500196941BDE8C7
:1005E000F04DA2E7064C074D06E0E06840F001033D
:1005F00094E8070098471034AC42F6D3FFF77AFD31
:100600006819000888190008FEE730B590F84050D6
:100610000124AC40C56B6C60046863604368102BB8
:10062000036803D099600068C26030BD9A600068BA
:10063000C16030BD704710B590F82110002202292A
:1006400005D00421816380F82020012010BD0168BD
:100650000B6823F00E030B6001680B6823F00103A5
:100660000B6090F84030C46B012101FA03F3636022
:1006700080F8211080F82020104610BD70B5044687
:1006800090F82000002501280CD0012084F82000DB
:1006900094F821600020012E06D084F82000022565
:1006A000284670BD022070BD022684F82160A06338
:1006B0002068066826F0010606602046FFF7A5FFC1
:1006C0002068016841F001010160E9E770B5044666
:1006D00090F82000002501280CD0012084F820008B
:1006E00094F821600020012E06D084F82000022515
:1006F000284670BD022070BD022684F82160A063E8
:100700002068066826F0010606602046FFF77DFF98
:10071000E06A00282068016802D041F00E0106E07E
:1007200021F0040101602068016841F00A010160C4
:100730002068016841F001010160D9E72DE9F84F17
:10074000DFF8B891002409F1040A0AF1040B2346EA
:100750000F270BF1040EC9E00125A5402A40AA424B
:100760007DD1674ED1F804C0ACEB0608B44532D059
:1007700014DCBCF1030F3AD009DCBCF1000F2AD025
:10078000BCF1010F1CD0BCF1020F31D11DE0BCF156
:10079000110F17D0BCF1120F2AD119E0B8F5881F3C
:1007A00019D006DCB8F5803F15D0B8F5801F1FD1F1
:1007B00011E0B8F5001F0ED0B8F5041F18D10AE0FB
:1007C000CB6815E0CB681B1D12E0CB6808330FE047
:1007D000CB680C330CE08B682BB1012B4FF0080376
:1007E00003D0456104E0042302E0056100E000233A
:1007F000FF2A01D8064601E000F104064FEA84050D
:1008000001D9A5F12005D6F8008007FA05FC28EAF1
:100810000C0803FA05F548EA0508C6F800804D689B
:10082000ED0062D5374DAE6946F00106AE61AD69A7
:1008300024F0030605F001050095334D06EB050C89
:10084000DCF80850A607360F07FA06F825EA08056F
:10085000DFF8B880404503D14FF0000817E044E0CE
:10086000DFF8AC80404502D14FF001080FE0DFF81F
:10087000A480404502D14FF0020808E0DFF89880DC
:10088000404502D14FF0030801E04FF0040808FA98
:1008900006F848EA0508CCF808804D68D9F80060E9
:1008A000ED034D4601D5164300E096432E604D689A
:1008B000DAF80060AD03554601D5164300E09643D3
:1008C0002E604D68DBF80060ED025D4601D51643F1
:1008D00000E096432E604D68DEF80060AD0275467C
:1008E00001D5164300E096432E60641C0D682A462D
:1008F000E5407FF431AFBDE8F88F0000000401400F
:1009000000001110001002400000014000080140EA
:10091000000C0140001001400014014001488068B3
:1009200070470000A8000020024881680278114446
:1009300081607047A8000020074810B5016841F0A9
:1009400010010160032000F065F8002000F006F8B7
:1009500000F024F8002010BD0020024070B50D4DBD
:1009600004464FF47A712878B1FBF0F00A4909681F
:10097000B1FBF0F000F0BCFA48B9102C07D200220D
:100980002146501E00F026F800206C6070BD01204A
:1009900070BD0000A8000020B40000200B4808B57E
:1009A000816941F001018161816901F001010091DA
:1009B000C16941F08051C161C06900F08050009070
:1009C0000348416821F0E061416008BD0010024029
:1009D00000000140F0B40E4B1B680C46C3F3022329
:1009E000C3F10705042D00D90425191D072901D2DB
:1009F000002300E0DB1E012606FA05F1491E214016
:100A000099409E40761E16403143F0BC00F07DBFF9
:100A10000CED00E0064900F0070208684FF6FF03FE
:100A2000184040EA0220034A104308607047000063
:100A30000CED00E00000FA052DE9F0470F46050037
:100A400061D0434E306800F00700B84209D23068E8
:100A500020F0070038433060306800F00700B842EB
:100A600051D128683B4C810712D5400703D56068F7
:100A700040F4E06060602878000703D5606840F4C7
:100A8000605060606068A96820F0F0000843606012
:100A90002878C00728D06868012810D0216802286B
:100AA00010D0890700292EDA616821F00301014383
:100AB0006160FFF733FF804641F288390DE021681D
:100AC0008903EFE78901EDE7FFF728FFA0EB0801B5
:100AD000494502D90320BDE8F0876068696800F0E5
:100AE0000C00B0EB810FEFD1306800F00700B84286
:100AF0000BD9306820F0070038433060306800F0D0
:100B00000700B84201D00120E5E72878400705D565
:100B10006068E96820F4E0600843606028780007B6
:100B200006D56068296920F4605040EAC100606021
:100B300000F018F86168084AC1F30311515CC8401D
:100B40000649086006480068FFF708FF0020C2E772
:100B5000002002400010024058190008B400002094
:100B6000AC00002012A185B00FC98DE80F0014A0C1
:100B7000144A006804905168134801F00C03042BD8
:100B800010D0082B0ED1C1F38343C9031DF8030015
:100B90000AD5516804AAC1F34041515C0A4A504346
:100BA000B0FBF1F005B0704708494843FAE7000090
:100BB00002030405060708090A0B0C0D0E0F10109E
:100BC000010200000010024000127A0000093D00FE
:100BD0002DE9F84F040070D02078C04DC00749D0EF
:100BE0006868C0F38100012807D06868C0F38100FD
:100BF000022809D16868C00306D52868800339D562
:100C000060680028E7D035E06068B0F5803F0BD021
:100C100010B1B0F5A02F11D0286820F480302860E2
:100C2000286820F4802002E0286840F480302860A2
:100C3000606890B1FFF772FE06460AE0286840F44B
:100C400080202860F0E700BFFFF768FE801B642863
:100C500073D828688003F7D50CE0FFF75FFE0646DF
:100C600005E000BFFFF75AFE801B6428F0D8286813
:100C70008003F7D420789A4E80074FF001094FF097
:100C8000000839D5686810F00C0F07D06868C0F309
:100C90008100022809D16868C00306D4286880074B
:100CA00014D52069012808D110E02069B0B1C6F838
:100CB0000090FFF733FE074605E00AE1FFF72EFE3E
:100CC000C01B0228C4D828688007F7D52868616946
:100CD00020F0F80040EAC10028600DE0C6F800806E
:100CE000FFF71CFE074604E0FFF718FEC01B0228B2
:100CF00023D828688007F7D4207800072CD57948B6
:100D0000A169D9B1C0F80090FFF708FE074604E0DA
:100D1000FFF704FEC01B02280FD8686A8007F7D5CA
:100D200071484FF4FA510068B0FBF1F0009000BF39
:100D30000098411E0091FAD20EE080E0C0F80080D9
:100D4000FFF7ECFD074604E0FFF7E8FDC01B0228B3
:100D500075D8686A8007F7D42078400760D5E869BD
:100D60000027C00008D4E86940F08050E861E869D5
:100D7000012700F0805000905C480168C90513D439
:100D80000168834641F480710160FFF7C7FD824628
:100D900006E000BFFFF7C2FDA0EB0A0064284ED8B2
:100DA000DBF80000C005F5D5E06801280AD008B1DD
:100DB000052813D0286A20F001002862286A20F054
:100DC000040002E0286A40F001002862E06841F275
:100DD000883B98B1FFF7A2FD82460BE0286A40F0FD
:100DE00004002862EEE700BFFFF798FDA0EB0A01C0
:100DF00059455AD8286A8007F6D50CE0FFF78EFDD2
:100E0000824605E0FFF78AFDA0EB0A0159454CD860
:100E1000286A8007F6D41FB1E86920F08050E861A5
:100E2000E06988B36968C1F38101022944D00228CE
:100E3000C6F8608004D0FFF771FD044638E034E066
:100E4000FFF76CFD074604E0FFF768FDC01B0228B2
:100E50002BD828688001F7D4206AB0F5803F05D1EF
:100E60006868A16820F4003008436860D4E908018C
:100E70000843696821F4741108436860C6F86090FB
:100E8000FFF74CFD044606E025E000BFFFF746FDF6
:100E9000001B022809D828688001F7D51BE000BF95
:100EA000FFF73CFD001B022802D90320BDE8F88FA4
:100EB00028688001F4D40EE00128F7D06868226A1F
:100EC00000F48031914204D1616A00F470108842CC
:100ED00001D00120EAE70020E8E70000001002400E
:100EE0000000424280044242B400002000700040F2
:100EF00010B5401EB0F1807F01D3012010BD4FF02E
:100F0000E02460610F21601700F0FFFC0020A06169
:100F100007202061002010BD70477047704770B5F2
:100F20000446006801694FF00005C943890715D4DC
:100F3000C168C943890711D4E91E016101202077E6
:100F4000206880698007204602D0FFF7E7FF04E0B1
:100F500000F098F8204600F053F9257720680169E1
:100F6000C943490717D4C168C943490713D46FF06F
:100F700004010161022020772068806910F4407F1D
:100F8000204602D0FFF7CAFF04E000F07BF82046BD
:100F900000F036F9257720680169C943090716D49E
:100FA000C168C943090712D46FF008010161042028
:100FB00020772068C0698007204602D0FFF7AEFF87
:100FC00004E000F05FF8204600F01AF92577206869
:100FD0000169C943C90617D4C168C943C90613D4F6
:100FE0006FF010010161082020772068C06910F4BB
:100FF000407F204602D0FFF791FF04E000F042F866
:10100000204600F0FDF8257720680169C943C9072B
:1010100008D1C168C943C90704D1891E01612046AE
:1010200000F03EF920680169C943090609D4C16886
:10103000C943090605D46FF0800101612046FFF71E
:101040006BFF20680169C943490609D4C168C943D7
:10105000490605D46FF040010161204600F030F9E7
:1010600020680169C94389060BD4C168C943890650
:1010700007D46FF0200101612046BDE87040FFF702
:101080004CBF70BD704770B5044690F83C000D46EB
:1010900001280AD0012084F83C0042B1042A18D06B
:1010A000082A2AD00C2A4DD139E0022070BD2068D0
:1010B00000F088FA2068816941F0080181612068A8
:1010C000816921F004018161206881692A691143E5
:1010D00011E0206800F09EFA2068816941F4006107
:1010E00081612068816921F4806181612068816962
:1010F0002A6941EA0221816124E0206800F0B6FA01
:101100002068C16941F00801C1612068C16921F00E
:101110000401C1612068C1692A69114311E0206896
:1011200000F0D0FA2068C16941F40061C161206813
:10113000C16921F48061C1612068C1692A6941EAFD
:101140000221C161002084F83C0070BD10B504008C
:1011500003D094F83D0010B107E0012010BD00203D
:1011600084F83C00204600F01FF8022084F83D007F
:10117000211D206800F0E2F9012084F8460084F87F
:101180003E0084F83F0084F8400084F8410084F871
:10119000420084F8430084F8440084F8450084F851
:1011A0003D00002010BD000000B50068114985B069
:1011B00088421CD11048C16941F00201C161C16976
:1011C00001F002010491816941F0040181618069AB
:1011D000694600F004000490402000900220019035
:1011E00001200290032003900448FFF7A7FA05B0FE
:1011F00000BD000000040040001002400008014053
:101200007047000010B50446022249B104290ED0EF
:10121000082913D094F84100012816D0012010BDF0
:1012200094F83E000128F9D184F83E200FE094F8AC
:101230003F000128F2D184F83F2008E094F84000F4
:101240000128EBD184F8402001E084F841200122FC
:10125000206800F0A9F90F492068884203D1426C48
:1012600042F4004242642068884208D0B0F1804FC6
:1012700005D00949884202D00849884204D18168D2
:1012800001F00701062903D0016841F00101016066
:10129000002010BD002C0140000400400008004068
:1012A0000068B0F1804F06D103490120087003495E
:1012B000C01E096808617047020000208C030020EE
:1012C000704710B504460068416994F83920C1F3AD
:1012D000C011212A0BD151B1416921F08001416136
:1012E000206B08B1FFF7A7F9204600F08BFA2068C1
:1012F000416994F83A20C1F38011222A0BD151B1EF
:10130000416921F040014161606B08B1FFF793F939
:10131000204600F069FA002010BD7047F8B5044679
:1013200090F83A0020283CD1C1B3BAB394F8380001
:10133000012836D0012084F83800A162A28500255A
:10134000E563222084F83A00636B17489862636B68
:101350001648D862636B16481863606B1346456382
:101360000846666B216802463046091DFFF7AEF954
:10137000206801684168009184F83850C16841F4E0
:101380008071C1602068416941F0010141612068BC
:10139000416941F0400141610020F8BDFFE70120B3
:1013A000FBE70220F9E70000A3170008DF17000899
:1013B000591700080068084988420BD1426808495B
:1013C000064B08881A54401C80B20880FF2801D9B7
:1013D0000020088070470000003801408C01002088
:1013E00000000020704700002DE9F843044690F803
:1013F00039001F4616460D4620284CD1C5B1BEB156
:1014000094F83800012846D0012084F838004FF0C5
:101410000008C4F83C80212084F83900FFF77EFAE8
:10142000A6848146E684A068B0F5805F03D004E01E
:101430000120BDE8F883206928B12E465FF0000541
:1014400084F838800EE00026FAE78021204600F07C
:10145000E2F9A0B9AEB116F8010B21684860E08C42
:10146000401EE084E08C4B464FF0000200970028BD
:10147000EBD14FF04001204600F0CDF930B1032010
:10148000D7E735F8020BC0F30800E6E7202084F820
:1014900039000020CDE70220CBE7FEE7FEE77047EA
:1014A00010B5FEF7FBFF0A4A0A4BFEF716FF0022B3
:1014B000094BFEF76BFE0022084BFEF780FF00226F
:1014C000074BFEF70AFFBDE81040FEF7F4BF00002F
:1014D000176CC1166CC1863F0000E03F000034402D
:1014E0000000544070477047FFF71EBA10B590B027
:1014F00028216846FEF73FFE14210AA8FEF73BFEAE
:1015000002200090012004901020002405900794F0
:101510006846FFF75DFB0F20CDE90A040C940D949B
:1015200000210AA80E94FFF787FA10B010BD70478B
:101530000148FFF7F4BC00008C030020F0B50268FE
:10154000164B174C174D4FF08047984205D0B842C4
:1015500003D0A04201D0A84203D122F070064A680D
:101560003243984205D0B84203D0A04201D0A842ED
:1015700003D122F44074CA6822434C6922F08002ED
:10158000224302608A68C2620A688262984201D17C
:101590000969016301214161F0BD0000002C014097
:1015A000000400400008004010B501F01F030121B5
:1015B000046A99408C430462016A9A4011430162B3
:1015C00010BD000030B5026A22F001020262026A18
:1015D0004368846924F073050C682C4322F00205EB
:1015E0008A682A430A4DA8420BD122F00805CA682E
:1015F00023F440732A434D6922F004021D438B6992
:101600002B434360846149684163026230BD00003E
:10161000002C014030B5026A22F010020262026A18
:10162000436884690D6824F4E64444EA05248D681F
:1016300022F0200242EA05120B4DA8420ED1CD68DD
:1016400022F0800242EA05124D6923F4406343EA26
:1016500085038D6922F0400243EA8503436084617B
:1016600049688163026230BD002C014030B5026AD6
:1016700022F480720262036A4268C46923F4007330
:1016800024F073050C682C438D6843EA05230C4D48
:10169000A8420ED1CD6823F4006343EA05234D69C7
:1016A00022F4405242EA05128D6923F4806342EA33
:1016B00005124260C4614968C163036230BD000025
:1016C000002C014030B5026A22F480520262046AA2
:1016D0004268C3690D6823F4E64343EA05238D6835
:1016E00024F4005444EA0534064DA84204D14D695F
:1016F00022F4804242EA85124260C3614968016473
:10170000046230BD002C014030B51249054687B057
:101710000F48086040F2CF700024C1E901044F2057
:10172000C1E903040846FFF711FD60200090284638
:10173000FFF7B6FECDE9010400226946054804948E
:10174000FFF7A1FC00210348FFF75CFD07B030BDA7
:1017500000040040D403002070B5446A206840694A
:1017600094F83910C0F3C0100025212904D118B114
:10177000E584204600F046F82068406994F83A1065
:10178000C0F38010222904D118B1E585204600F06D
:101790002BF8E06B40F01000E0632046FFF7BDFD42
:1017A00070BD10B50146406A09680968890613D4FE
:1017B0000021C1850168CA6822F48072CA6001688C
:1017C0004A6922F001024A6101684A6922F0400236
:1017D0004A61202180F83A10FFF7ECFD10BD10B5EA
:1017E000406AFFF7FFFD10BD0168CA6822F49072DD
:1017F000CA6001684A6922F001024A61202180F82A
:101800003A1070470168CA6822F0C002CA602021FD
:1018100080F8391070472DE9F041984617460E467A
:101820000446069D1DE0681C1BD02DB1FFF776F81D
:10183000A0EB0800A84214D92068C16821F4D07137
:10184000C1602068416921F001014161202084F8D4
:10185000390084F83A00002084F838000320BDE8FD
:10186000F0812068006836EA000004D00020B84209
:10187000D9D00020F3E70120F9E7000070B5204C33
:1018800020680168C943890602D46FF02001016015
:1018900020680068C043C00631D41948FFF711FD25
:1018A00017484030006840681549C0F1FF0085B214
:1018B000C4312A4601F1FF00FEF744FC10494FF6FF
:1018C000FF73C4312A46A1F14000FFF78DFD0C489B
:1018D000FF21C430FEF74FFC0949FF22C4310848FC
:1018E000FFF71CFD07480168054AFF23C432A2F137
:1018F0008400FEF7C3FE21686FF01000086070BD21
:10190000C800002004380140FEE70907090E00283E
:1019100004DB00F1E02080F80014704700F00F00B5
:1019200000F1E02080F8141D704702E008C8121F83
:1019300008C1002AFAD170477047002001E001C1B8
:10194000121F002AFBD17047FEF7F6FFFFF7CEFD0E
:101950000020FFF7D9FEFEE70000000000000000B5
:101960000102030406070809881900080000002086
:10197000B80000002A190008401A0008B80000202A
:10198000680700003A190008000000107600044DB6
:1019900051545404C2003C002731323334357C7337
:1019A00065637572656D6F64653D332C7369676E31
:1019B0006D6574686F643D686D6163736861317CE7
:1019C00000174C616D705F537769746368266131ED
:1019D00031397048514546537200284343423036EE
:1019E000424532333846324638304635464346451E
:1019F0003035343144354430463545323846353259
:101A0000443032822A000100252F6131313970487B
:101A100051454653722F4C616D705F537769746303
:101A2000682F757365722F6F6E6F726F6666000038
:101A30000100000010000000000000000024F4007D
:04000005080000ED02
:00000001FF
