:020000040800F2
:10000000D009002001010008AD1D0008D31A000826
:10001000B11C0008B106000805250008000000001A
:10002000000000000000000000000000F71D0008B4
:10003000DD06000800000000F51D0008F91D00089D
:100040001B0100081B0100081B0100081B01000820
:100050001B0100081B0100081B0100081B01000810
:100060001B0100081B0100081B0100081B01000800
:100070001B0100081B0100081B0100081B010008F0
:100080001B0100081B0100081B0100081B010008E0
:100090001B0100081B0100081B0100081B010008D0
:1000A0001B0100081B0100081B0100081B010008C0
:1000B000411E00081B0100084D1E00081B0100081E
:1000C0001B0100081B0100081B0100081B010008A0
:1000D0001B010008712300081B0100081B01000818
:1000E0001B0100081B0100081B010008DFF80CD0F1
:1000F00000F0CCFA004800473D270008D009002056
:100100000648804706480047FEE7FEE7FEE7FEE7B1
:10011000FEE7FEE7FEE7FEE7FEE7FEE73F1E00081C
:10012000ED000008202A04DB203A21FA02F0002129
:10013000704721FA02F3D040C2F1200291400843F7
:100140001946704710B5431A934209D2831888188C
:1001500003E010F8011D03F8011D521EF9D210BD75
:1001600040EA01039B0703D009E008C9121F08C039
:10017000042AFAD203E011F8013B00F8013B521EB9
:10018000F9D210BDD2B201E000F8012B491EFBD21A
:1001900070470022F6E710B513460A460446194692
:1001A000FFF7F0FF204610BD30B505462A460B4646
:1001B00012F8010B13F8014B08B1A042F8D01CB1A2
:1001C000002802D06D1CF1E7284630BD421C10F813
:1001D000011B0029FBD1801A7047CBB203E00178E4
:1001E000994203D0401C521EF9D20020704730B50E
:1001F00004460020034600E05B1C934203D2E05C0F
:10020000CD5C401BF8D030BD2DE9FE4F804681EA21
:100210000300C00F0C46009021F0004123F0004580
:10022000B8EB0200A94105D24046214690461C4643
:100230000B46024623F00040104347D0270DC7F37A
:100240000A00C3F30A510290401A019040286BDA69
:10025000C3F3130040F4801B0098924620B10023A2
:10026000D2EB030A63EB0B0B01985946C0F1400235
:10027000504600F08DF906460D4650465946019A03
:1002800000F095F910EB08006141002487EA115253
:1002900084EAE7731A4340D0009A62B3019A012AB4
:1002A0004FEA075215DC001B61EB02014FF00042E0
:1002B00002EA0752CDE90042001C41F580113246A6
:1002C0002B4600F095F903B0BDE8F08F404621467B
:1002D000F9E7001B61EB0201001C41F580130018D7
:1002E0005B412018A2F5001747EB030140EAD570E7
:1002F000B6196D4111E06D084FEA360645EAC07542
:100300004FEA0752001B61EB0201001C41F580110E
:1003100049084FEA30000019514132462B4603B0DC
:10032000BDE8F04F00F055B90098012240000023CD
:10033000D0EB020263EBE073009821464FEAE074D1
:10034000B8EB000061EB0401E9E783F000435BE7F1
:1003500081F0004158E72DE9FE4F81EA030404F0E3
:10036000004421F0004100944FF0000B23F00043C3
:1003700050EA01045ED052EA03045BD0C3F30A548E
:10038000C1F30A552C44A4F2F3340194A0FB0254A7
:10039000C1F3130141F48011C3F3130343F4801339
:1003A00001FB024400FB034E840A970A44EA81548D
:1003B00047EA8357A4FB076802958D0A05FB07856A
:1003C0004FEA932C04FB0C542705029D4FEA065874
:1003D00047EA1637B5EB08056EEB070C870E920E51
:1003E00047EA811742EA8312A7FB0201B6EB0B0131
:1003F00064EB00042B0D43EA0C335E1844EB1C50F5
:10040000DA465146E7FB0201C5F313044FEA0B330A
:1004100043EA14534FEA0432019C43EA0603A4F171
:100420000C040294009CCDE900B400F0E1F803B0A4
:10043000BDE8F08F00200146F9E72DE9F04D81EA93
:10044000030404F0004B21F0004514464FF0000A6D
:1004500023F0004150EA050220D054EA01021DD0E9
:10046000C5F30A570246C5F31303C1F31300C1F3E2
:100470000A5640F4801543F48013A7EB0608101BBE
:10048000D64608F2FD3873EB050002D308F10108E7
:1004900001E092185B41B8F1000F03DA0020014639
:1004A000BDE8F08D00204FF48011064684460EE032
:1004B000171B73EB050705D3121B63EB05030643FC
:1004C0004CEA010C49084FEA300092185B4150EAAF
:1004D0000107EDD152EA030012D082EA040083EA58
:1004E0000501084305D0101BAB4106D201220023B1
:1004F00006E000224FF0004302E06FF001025310CB
:100500001AEB06004CEB085110EB0A0041EB0B0113
:10051000BDE8F04D00F05DB80EB540F233410291F8
:100520000021CDE900110A460B4600F061F803B046
:1005300000BDC1F30A5210B5C1F3130140F2FF33FD
:1005400041F480119A4201DA002010BD40F2334399
:100550009A42A2F2334203DC5242FFF7E3FD10BDA0
:10056000904010BD30B50B460146002020220124EA
:1005700009E021FA02F59D4205D303FA02F5491B71
:1005800004FA02F52844151EA2F10102F1DC30BD87
:10059000202A04DB203A00FA02F100207047914043
:1005A000C2F1200320FA03F3194390407047202A38
:1005B00006DBCB17203A41FA02F043EAE07306E08B
:1005C00041FA02F3D040C2F120029140084319469B
:1005D000704710B5141E73F1000408DA401C41F195
:1005E000000192185B411A4301D120F0010010BDB7
:1005F0002DE9F04D92469B4611B1B1FA81F202E02D
:10060000B0FA80F220329046FFF7C2FF04460F4650
:1006100040EA0A0041EA0B0153465A46084313D008
:10062000114653EA010019D0C8F140025046FFF7C5
:1006300079FD05460E46504659464246FFF7A8FF4B
:10064000084305D0012004E020463946BDE8F08D7E
:100650000020054346EAE0762C4337430A986305B9
:10066000E40AA0EB08000022FD0A44EA47540A30DD
:1006700002D500200146E9E7010510196941DDE9CD
:10068000084500196941BDE8F04DA2E7064C074D49
:1006900006E0E06840F0010394E807009847103452
:1006A000AC42F6D3FFF726FD0C2900082C290008E0
:1006B000FEE730B590F840500124AC40C56B6C604B
:1006C000046863604368102B036803D09960006876
:1006D000C26030BD9A600068C16030BD70470000E4
:1006E00070B505460424641E14F0FF0407D02946A3
:1006F0000448FFF759FD0028F5D0012070BD002007
:1007000070BD0000DB02002070B501F0E3F9174D69
:100710002878002829D00224FF211548FFF739FD49
:100720004FF4FA7613A0696A01F0EEFE304600F04D
:100730006BF9641E14F0FF0404D00FA0FFF7D0FF84
:100740000028EFD1FF210A48FFF723FD2CB94FF411
:100750007A720CA1E86800F083F8002028700B483A
:100760000068016841F00101016070BD04000020D3
:10077000DB020020257300005354415455533A3492
:1007800000000000434F4E4E454354006C050020CE
:1007900070B54FF6FF752B46092218A11A4801F0D3
:1007A0003FF91A4C4FF47A763246A169606800F03E
:1007B00057F82B460F2216A1134801F031F93246A3
:1007C00017A1606900F04CF82B460F2215A10E48C6
:1007D00001F026F940F2DC5216A1A06800F040F8C2
:1007E0002B46132217A1084801F01AF9720020695C
:1007F000BDE8704018A100F033B800004154B2E2E7
:10080000CAD43A0D0A0000009C0100200400002018
:10081000B6CFBFAAB5B1C7B0C1ACBDD33A0D0A00BF
:100820004F4B0000C1ACBDD357494649C8C8B5E3DA
:100830003A0D0A005749464920434F4E4E4543540E
:1008400045440000C1ACBDD3B0A2C0EFD4C6B7FED2
:10085000CEF1C6F73A0D0A00434F4E4E45435400C1
:100860002DE9F04115460E460746FFF7AFFC04247C
:10087000FF210A48FFF78DFC394609A001F044FE2C
:10088000284600F0C1F8641EE4B204D33046FFF7F6
:1008900027FF0028F0D0BDE8F0810000DB02002037
:1008A00025730000704710B590F82110002202292E
:1008B00005D00421816380F82020012010BD01684B
:1008C0000B6823F00E030B6001680B6823F0010333
:1008D0000B6090F84030C46B012101FA03F36360B0
:1008E00080F8211080F82020104610BD30B528B3C4
:1008F00008C8134914221944B1FBF2F18900C163FD
:1009000010498163022141771A6843F6F0718A43E6
:10091000D0E900142143D0E902452C432143046966
:100920002143446921438469214311431960002113
:100930004163012242770177084630BD012030BD76
:10094000F8FFFDBF0000024070B5044690F820009B
:10095000002501280CD0012084F8200094F82160A3
:100960000020012E06D084F820000225284670BD04
:10097000022070BD022684F82160A063206806680A
:1009800026F0010606602046FFF793FE2068016806
:1009900041F001010160E9E770B5044690F82000DC
:1009A000002501280CD0012084F8200094F8216053
:1009B0000020012E06D084F820000225284670BDB4
:1009C000022070BD022684F82160A06320680668BA
:1009D00026F0010606602046FFF76BFEE06A00285D
:1009E0002068016802D041F00E0106E021F0040108
:1009F00001602068016841F00A0101602068016817
:100A000041F001010160D9E770B5044600F0FEF83D
:100A10000546601C02D004480078044400F0F6F853
:100A2000401BA042FAD370BDF40000202DE9F84F1E
:100A3000DFF8B891002409F1040A0AF1040B2346F7
:100A40000F270BF1040EC9E00125A5402A40AA4258
:100A50007DD1674ED1F804C0ACEB0608B44532D066
:100A600014DCBCF1030F3AD009DCBCF1000F2AD032
:100A7000BCF1010F1CD0BCF1020F31D11DE0BCF163
:100A8000110F17D0BCF1120F2AD119E0B8F5881F49
:100A900019D006DCB8F5803F15D0B8F5801F1FD1FE
:100AA00011E0B8F5001F0ED0B8F5041F18D10AE008
:100AB000CB6815E0CB681B1D12E0CB6808330FE054
:100AC000CB680C330CE08B682BB1012B4FF0080383
:100AD00003D0456104E0042302E0056100E0002347
:100AE000FF2A01D8064601E000F104064FEA84051A
:100AF00001D9A5F12005D6F8008007FA05FC28EAFF
:100B00000C0803FA05F548EA0508C6F800804D68A8
:100B1000ED0062D5374DAE6946F00106AE61AD69B4
:100B200024F0030605F001050095334D06EB050C96
:100B3000DCF80850A607360F07FA06F825EA08057C
:100B4000DFF8B880404503D14FF0000817E044E0DB
:100B5000DFF8AC80404502D14FF001080FE0DFF82C
:100B6000A480404502D14FF0020808E0DFF89880E9
:100B7000404502D14FF0030801E04FF0040808FAA5
:100B800006F848EA0508CCF808804D68D9F80060F6
:100B9000ED034D4601D5164300E096432E604D68A7
:100BA000DAF80060AD03554601D5164300E09643E0
:100BB0002E604D68DBF80060ED025D4601D51643FE
:100BC00000E096432E604D68DEF80060AD02754689
:100BD00001D5164300E096432E60641C0D682A463A
:100BE000E5407FF431AFBDE8F88F0000000401401C
:100BF00000001110001002400000014000080140F8
:100C0000000C0140001001400014014001488068C0
:100C100070470000F4000020024881680278114407
:100C200081607047F4000020074810B5016841F06A
:100C300010010160032000F073F8002000F006F8B6
:100C400000F024F8002010BD0020024070B50D4DCA
:100C500004464FF47A712878B1FBF0F00A4909682C
:100C6000B1FBF0F000F0EAFA48B9102C07D20022EC
:100C70002146501E00F034F800206C6070BD012049
:100C800070BD0000F4000020000100200B4808B5F2
:100C9000816941F001018161816901F001010091E7
:100CA000C16941F08051C161C06900F0805000907D
:100CB0000348416821F0E061416008BD0010024036
:100CC00000000140002809DB00F01F0201219140D3
:100CD0004009800000F1E020C0F8001170470000DA
:100CE000F0B40E4B1B680C46C3F30223C3F1070597
:100CF000042D00D90425191D072901D2002300E085
:100D0000DB1E012606FA05F1491E214099409E404E
:100D1000761E16403143F0BC01F006BC0CED00E03D
:100D2000064900F0070208684FF6FF03184040EA42
:100D30000220034A10430860704700000CED00E0F9
:100D40000000FA052DE9F0470F46050061D0434E3B
:100D5000306800F00700B84209D2306820F0070080
:100D600038433060306800F00700B84251D128683D
:100D70003B4C810712D5400703D5606840F4E06022
:100D800060602878000703D5606840F460506060B8
:100D90006068A96820F0F000084360602878C00708
:100DA00028D06868012810D02168022810D089074F
:100DB00000292EDA616821F0030101436160FFF729
:100DC00025FF804641F288390DE021688903EFE76D
:100DD0008901EDE7FFF71AFFA0EB0801494502D9A9
:100DE0000320BDE8F0876068696800F00C00B0EB94
:100DF000810FEFD1306800F00700B8420BD930689E
:100E000020F0070038433060306800F00700B84237
:100E100001D00120E5E72878400705D56068E9683A
:100E200020F4E060084360602878000706D5606819
:100E3000296920F4605040EAC100606000F038F891
:100E40006168084AC1F30311515CC8400649086053
:100E500006480068FFF7FAFE0020C2E700200240C3
:100E6000001002404028000800010020F800002087
:100E70000448054900684968044AC1F30221515CED
:100E8000C8407047000100200010024050280008B0
:100E90000448054900684968044AC1F3C221515C0D
:100EA000C840704700010020001002405028000890
:100EB00012A185B00FC98DE80F0014A0144A006874
:100EC00004905168134801F00C03042B10D0082B38
:100ED0000ED1C1F38343C9031DF803000AD551683D
:100EE00004AAC1F34041515C0A4A5043B0FBF1F0FF
:100EF00005B0704708494843FAE7000002030405BB
:100F0000060708090A0B0C0D0E0F10100102000055
:100F10000010024000127A0000093D002DE9F84F50
:100F2000040070D02078C04DC00749D06868C0F375
:100F30008100012807D06868C0F38100022809D128
:100F40006868C00306D52868800339D56068002822
:100F5000E7D035E06068B0F5803F0BD010B1B0F558
:100F6000A02F11D0286820F480302860286820F451
:100F7000802002E0286840F480302860606890B1EA
:100F8000FFF744FE06460AE0286840F48020286007
:100F9000F0E700BFFFF73AFE801B642873D828688B
:100FA0008003F7D50CE0FFF731FE064605E000BFF1
:100FB000FFF72CFE801B6428F0D828688003F7D444
:100FC00020789A4E80074FF001094FF0000839D57C
:100FD000686810F00C0F07D06868C0F38100022821
:100FE00009D16868C00306D42868800714D5206931
:100FF000012808D110E02069B0B1C6F80090FFF7D1
:1010000005FE074605E00AE1FFF700FEC01B0228C7
:10101000C4D828688007F7D52868616920F0F800EF
:1010200040EAC10028600DE0C6F80080FFF7EEFD41
:10103000074604E0FFF7EAFDC01B022823D8286812
:101040008007F7D4207800072CD57948A169D9B159
:10105000C0F80090FFF7DAFD074604E0FFF7D6FD81
:10106000C01B02280FD8686A8007F7D571484FF473
:10107000FA510068B0FBF1F0009000BF0098411EEB
:101080000091FAD20EE080E0C0F80080FFF7BEFDCC
:10109000074604E0FFF7BAFDC01B022875D8686A4E
:1010A0008007F7D42078400760D5E8690027C000A2
:1010B00008D4E86940F08050E861E869012700F051
:1010C000805000905C480168C90513D401688346CC
:1010D00041F480710160FFF799FD824606E000BF90
:1010E000FFF794FDA0EB0A0064284ED8DBF800005F
:1010F000C005F5D5E06801280AD008B1052813D04D
:10110000286A20F001002862286A20F0040002E02A
:10111000286A40F001002862E06841F2883B98B1FB
:10112000FFF774FD82460BE0286A40F00400286255
:10113000EEE700BFFFF76AFDA0EB0A0159455AD858
:10114000286A8007F6D50CE0FFF760FD824605E0CF
:10115000FFF75CFDA0EB0A0159454CD8286A8007CF
:10116000F6D41FB1E86920F08050E861E06988B3E7
:101170006968C1F38101022944D00228C6F8608061
:1011800004D0FFF743FD044638E034E0FFF73EFDAE
:10119000074604E0FFF73AFDC01B02282BD8286859
:1011A0008001F7D4206AB0F5803F05D16868A16856
:1011B00020F4003008436860D4E9080108436968F6
:1011C00021F4741108436860C6F86090FFF71EFDB3
:1011D000044606E025E000BFFFF718FD001B0228CB
:1011E00009D828688001F7D51BE000BFFFF70EFD86
:1011F000001B022802D90320BDE8F88F286880016F
:10120000F4D40EE00128F7D06868226A00F4803137
:10121000914204D1616A00F47010884201D001202B
:10122000EAE70020E8E70000001002400000424228
:1012300080044242000100200070004010B5401EB2
:10124000B0F1807F01D3012010BD4FF0E024606138
:101250000F21601701F068F90020A06107202061CC
:10126000002010BD7047704710B5040003D094F8FB
:101270003D0010B107E0012010BD002084F83C00C3
:10128000204600F01FF8022084F83D00211D206850
:1012900000F0E2FD012084F8460084F83E0084F866
:1012A0003F0084F8400084F8410084F8420084F84C
:1012B000430084F8440084F8450084F83D00002091
:1012C00010BD000038B505460068154CB0F1804FE0
:1012D0000FD1E06940F00100E061E069032200F015
:1012E0000100009000211C20FFF7FAFC1C20FFF7F2
:1012F000E9FC0C492868884211D1E06940F00400FB
:10130000E061E069042200F00400009000211E204A
:10131000FFF7E6FCBDE838401E20FFF7D3BC38BD20
:10132000001002400008004090F83D10012901D053
:1013300001207047022180F83D1000680B49884267
:1013400008D0B0F1804F05D00949884202D0094940
:10135000884204D1816801F00701062903D00168A1
:1013600041F001010160002070470000002C0140A5
:10137000000400400008004090F83D10012901D011
:1013800001207047022180F83D100168CA6842F0D0
:101390000102CA6000680B49884208D0B0F1804F52
:1013A00005D00949884202D00849884204D18168A1
:1013B00001F00701062903D0016841F00101016035
:1013C00000207047002C014000040040000800404D
:1013D000704770B50446006801694FF00005C943C5
:1013E000890715D4C168C943890711D4E91E016171
:1013F00001202077206880698007204602D0FFF70F
:10140000E7FF04E000F098F8204600F053F9257754
:1014100020680169C943490717D4C168C94349070E
:1014200013D46FF0040101610220207720688069E5
:1014300010F4407F204602D0FFF7CAFF04E000F01E
:101440007BF8204600F036F9257720680169C9430A
:10145000090716D4C168C943090712D46FF00801FF
:101460000161042020772068C0698007204602D0EF
:10147000FFF7AEFF04E000F05FF8204600F01AF935
:10148000257720680169C943C90617D4C168C943D3
:10149000C90613D46FF0100101610820207720687D
:1014A000C06910F4407F204602D0FFF791FF04E0AE
:1014B00000F042F8204600F0FDF825772068016929
:1014C000C943C90708D1C168C943C90704D1891EE6
:1014D0000161204600F03EF920680169C943090610
:1014E00009D4C168C943090605D46FF080010161C0
:1014F0002046FFF7B7FE20680169C943490609D4B1
:10150000C168C943490605D46FF040010161204616
:1015100000F04EF920680169C94389060BD4C168FF
:10152000C943890607D46FF0200101612046BDE858
:101530007040FFF798BE70BD704770B5044690F8D4
:101540003C000D4601280AD0012084F83C0042B13D
:10155000042A18D0082A2AD00C2A4DD139E00220BA
:1015600070BD206800F01EFD2068816941F008010F
:1015700081612068816921F00401816120688169AD
:101580002A69114311E0206800F034FD2068816968
:1015900041F4006181612068816921F48061816189
:1015A000206881692A6941EA0221816124E020687A
:1015B00000F04CFD2068C16941F00801C16120685C
:1015C000C16921F00401C1612068C1692A69114320
:1015D00011E0206800F066FD2068C16941F40061F7
:1015E000C1612068C16921F48061C1612068C1695D
:1015F0002A6941EA0221C161002084F83C0070BDE3
:1016000010B5040003D094F83D0010B107E00120AC
:1016100010BD002084F83C00204600F01FF8022096
:1016200084F83D00211D206800F016FC012084F89C
:10163000460084F83E0084F83F0084F8400084F8B7
:10164000410084F8420084F8430084F8440084F8A0
:10165000450084F83D00002010BD000000B5006882
:10166000114985B088421CD11048C16941F002017E
:10167000C161C16901F002010491816941F0040175
:1016800081618069694600F004000490C0200090E8
:101690000220019001200290032003900448FFF7EC
:1016A000C5F905B000BD0000000400400010024074
:1016B000000801407047000010B50446022249B1FD
:1016C00004290ED0082913D094F84100012816D01F
:1016D000012010BD94F83E000128F9D184F83E2085
:1016E0000FE094F83F000128F2D184F83F2008E091
:1016F00094F840000128EBD184F8402001E084F800
:1017000041200122206800F0DDFB0F49206888425B
:1017100003D1426C42F4004242642068884208D0FF
:10172000B0F1804F05D00949884202D0084988426B
:1017300004D1816801F00701062903D0016841F056
:1017400001010160002010BD002C01400004004098
:101750000008004010B501220368D11EB3F1804F8C
:1017600004D10F4B1A700F4B1B68196100680E4BA8
:10177000984213D10D4802700A4A90321068036AE9
:1017800041F21114234207D1036AA410234203D16A
:10179000036823F0010303601068016110BD0000BD
:1017A0002C000020DC040020000800400400002081
:1017B000704710B504460068416994F83920C1F3B8
:1017C000C011212A0BD151B1416921F08001416141
:1017D000206B08B1FFF767F8204600F031FD206864
:1017E000416994F83A20C1F38011222A0BD151B1FA
:1017F000416921F040014161606B08B1FFF753F886
:10180000204600F00FFD002010BD704770B50400A9
:1018100004D094F83900002510B106E0012070BD15
:1018200084F83850204600F023F8242084F839004A
:101830002068C16821F40051C160204600F00AFD13
:101840002068016921F4904101612068416921F01B
:101850002A0141612068C16841F40051C160E5631B
:10186000202084F8390084F83A00002070BD000080
:101870002DE9F84F064600683149324C324D334F5E
:101880004FF0000B4FF002094FF0010A4FF0030830
:1018900088422CD1A06940F48040A061A06900F486
:1018A00080400090A06940F00400A061A06900F0B1
:1018B000040000904815C5F80C8085E8010629460B
:1018C0003846FFF7B3F82015C5E9000B294638461E
:1018D000FFF7ACF83068C16841F01001C160252005
:1018E000FFF7F0F9012200212520FFF7F9F9184947
:1018F0003068884221D1E06940F40030E061E0695D
:1019000000F400300090A06940F00400A061A069DC
:101910000D4900F0040000900420C5F80C8085E813
:1019200001063846FFF782F80820C5E9000B384663
:10193000BDE8F84F0449FFF779B8BDE8F88F00001B
:10194000003801400010024008010020000801405A
:1019500000440040F8B5044690F83A0020283CD1F5
:10196000C1B3BAB394F83800012836D0012084F806
:101970003800A162A2850025E563222084F83A00A0
:10198000636B17489862636B1648D862636B16489E
:101990001863606B134645630846666B2168024610
:1019A0003046091DFEF7F8FF206801684168009184
:1019B00084F83850C16841F48071C1602068416981
:1019C00041F0010141612068416941F040014161FC
:1019D0000020F8BDFFE70120FBE70220F9E7000047
:1019E000DF2100081B220008952100080068084933
:1019F00088420BD142680849064B08881A54401C9B
:101A000080B20880FF2801D90020088070470000BC
:101A100000380140DC010020000000207047000079
:101A20002DE9F843044690F839001F4616460D4646
:101A300020284CD1C5B1BEB194F83800012846D059
:101A4000012084F838004FF00008C4F83C802120C1
:101A500084F83900FFF7DAF8A6848146E684A068A6
:101A6000B0F5805F03D004E00120BDE8F883206971
:101A700028B12E465FF0000584F838800EE000267D
:101A8000FAE78021204600F041FCA0B9AEB116F87B
:101A9000010B21684860E08C401EE084E08C4B46DE
:101AA0004FF0000200970028EBD14FF04001204694
:101AB00000F02CFC30B10320D7E735F8020BC0F35F
:101AC0000800E6E7202084F839000020CDE7022056
:101AD000CBE7FEE710B50F4C0F48216AFEF764FB19
:101AE00028B90D48E169FEF75FFB002811D040F2EC
:101AF000DC520AA12069FEF7B3FE08A10648FEF7F2
:101B000053FB002805D0BDE810400649064800F008
:101B100059B810BD04000020DB020020434F4E4E98
:101B200045435400430000204E000020014602209F
:101B300000F0D6B910B5164800F09AF828B1FF2188
:101B40001448FEF726FB112010BD1148001F00F0BD
:101B50008FF828B1FF210F48FEF71BFB102010BDA6
:101B60000B48001D00F084F828B1FF210948FEF75A
:101B700010FB202010BD0648083000F079F800283E
:101B8000F8D0FF210348FEF704FB212010BD000020
:101B900037000020DA030020094910B50020087042
:101BA000173101F10B0000F00DF805491C3101F16E
:101BB0007F0000F007F8BDE810401E20FFF7B6BF19
:101BC0002C0000202DE9F0478946824600F071F88C
:101BD000054618A704244FF4FA76294616A000F00B
:101BE00093FC3046FEF710FF641E14F0FF0404D08F
:101BF0003846FEF775FD0028EFD0042412A74FF6F3
:101C0000FF7843462A4651461148FFF709FF304600
:101C1000FEF7FAFE641E14F0FF0409D03846FEF702
:101C20005FFD002804D1484600F022F80028E8D0E3
:101C3000BDE8F0874F4B000041542B4349505345BA
:101C40004E443D25640D0A0053454E44204F4B0041
:101C50001801002010B5054C2078002805D0211D62
:101C6000C81EFFF7AFFF0020207010BD2C00002021
:101C70002DE9F041054600F01CF8074604242978B8
:101C8000FF220A48FEF7A9FA0646641E14F0FF0474
:101C900009D03A4629463046FEF7A9FA0028F4D181
:101CA0000120BDE8F0810020FBE70000DA030020FE
:101CB000FEE70146002001E0401C80B20A5C3E2A9B
:101CC000FAD1704710B50121032000F00DFA02216E
:101CD000BDE81040032000F007BA00002DE9F041F4
:101CE0000746084600F064F81E4D0446286801685F
:101CF00041F0010101601C4E012F02D0022F0FD1D3
:101D000007E001220021304600F0DCF82868446337
:101D100006E001220421304600F0D4F828688463EC
:101D20001420FEF771FE11480068016A41F2111299
:101D3000114207D1016A9210114203D1016821F0CA
:101D4000010101604FF4FA70FEF75EFE00221146B9
:101D5000304600F0B7F83046BDE8F04100220421DB
:101D600000F0B0B824050020000400406C050020FD
:101D700070B50546084600F01BF8044609480A4EAF
:101D8000012D08D0022D05D10122042100F09AF87E
:101D90003068846370BD0122002100F093F8306840
:101DA000446370BD0004004024050020704700001B
:101DB00010B5FEF7B1FB0A4A0A4BFEF7CCFA002237
:101DC000094BFEF721FA0022084BFEF736FB0022F2
:101DD000074BFEF7C0FABDE81040FEF7AABB0000B3
:101DE000176CC1166CC1863F0000E03F0000344014
:101DF0000000544070477047FEF70EBF10B590B01A
:101E000028216846FEF7C5F914210AA8FEF7C1F992
:101E100002200090012004901020002405900794D7
:101E20006846FFF77BF80F20CDE90A040C940D9467
:101E300000210AA80E94FEF785FF10B010BD704770
:101E40000148FFF7C6BA0000DC0400200148FFF794
:101E5000C0BA00006C050020F0B50268164B174CA4
:101E6000174D4FF08047984205D0B84203D0A042AA
:101E700001D0A84203D122F070064A68324398424A
:101E800005D0B84203D0A04201D0A84203D122F429
:101E90004074CA6822434C6922F0800222430260E7
:101EA0008A68C2620A688262984201D10969016344
:101EB00001214161F0BD0000002C01400004004000
:101EC0000008004010B501F01F030121046A994089
:101ED0008C430462016A9A401143016210BD000004
:101EE00010B501EBC104002204EB0111541E49F6A8
:101EF0003F4304EBC101022822D0032834D0042838
:101F00001DD1264C2448C4E902212261C4E9000302
:101F10002046FFF7A9F908B1FEF7C4FC1F48FFF7F8
:101F20002BFA2068016A41F21112114207D1016AAD
:101F30009210114203D1016821F00101016010BD2E
:101F400016484FF080449038C0E902210261C0E990
:101F50000043FFF789F908B1FEF7A4FC0F48BDE87C
:101F600010409038FFF708BA0C480D4C4838C0E9CB
:101F700002210261C0E90043FFF776F908B1FEF7DC
:101F800091FC06484838FFF7F7F90448BDE81040CF
:101F90004838FFF7C9B90000000800406C05002070
:101FA0000004004030B5026A22F001020262026AB7
:101FB0004368846924F073050C682C4322F0020501
:101FC0008A682A430A4DA8420BD122F00805CA6844
:101FD00023F440732A434D6922F004021D438B69A8
:101FE0002B434360846149684163026230BD000055
:101FF000002C014030B5026A22F010020262026A2F
:10200000436884690D6824F4E64444EA05248D6835
:1020100022F0200242EA05120B4DA8420ED1CD68F3
:1020200022F0800242EA05124D6923F4406343EA3C
:1020300085038D6922F0400243EA85034360846191
:1020400049688163026230BD002C014030B5026AEC
:1020500022F480720262036A4268C46923F4007346
:1020600024F073050C682C438D6843EA05230C4D5E
:10207000A8420ED1CD6823F4006343EA05234D69DD
:1020800022F4405242EA05128D6923F4806342EA49
:1020900005124260C4614968C163036230BD00003B
:1020A000002C014030B5026A22F480520262046AB8
:1020B0004268C3690D6823F4E64343EA05238D684B
:1020C00024F4005444EA0534064DA84204D14D6975
:1020D00022F4804242EA85124260C3614968016489
:1020E000046230BD002C01402DE9F0410024274E50
:1020F000274D0F4603280AD140F2CF702E60C5E964
:1021000001044F20C5E903042846FFF779FA204867
:1021100060219030012F15D0022F34D1C0E9001476
:1021200084600146046104229038FFF706FA042116
:102130001748FFF7C1FA3046BDE8F04100220421FC
:10214000FFF7C0BEC0E90014846011490461002299
:1021500090310F48FFF7F1F900210D48FFF7ACFA75
:10216000002211463046FFF7ADFE2868016A41F2B1
:102170001112114207D1016A9210114203D1016874
:1021800021F001010160BDE8F08100000004004081
:102190002405002070B5446A2068406994F839101D
:1021A000C0F3C0100025212904D118B1E5842046D0
:1021B00000F046F82068406994F83A10C0F38010A7
:1021C000222904D118B1E585204600F02BF8E06BF8
:1021D00040F01000E0632046FFF717FB70BD10B51C
:1021E0000146406A09680968890613D40021C1853F
:1021F0000168CA6822F48072CA6001684A6922F0E4
:1022000001024A6101684A6922F040024A612021C4
:1022100080F83A10FFF7EAFB10BD10B5406AFFF7EF
:10222000FDFB10BD0168CA6822F49072CA600168A3
:102230004A6922F001024A61202180F83A10704771
:102240000168CA6822F0C002CA60202180F83910F3
:102250007047000070B5044600680169E26821F427
:102260004051114301612169A06808436169084335
:102270002168CA6841F20C639A430243CA6020682D
:102280004169A26921F44071114341611E492068EE
:10229000884202D1FEF7FCFD01E0FEF7E9FD00EB0C
:1022A000C00101EB0012606864218000B2FBF0F312
:1022B000B3FBF1F36FF018067343B2FBF0F5B2FB1A
:1022C000F0F605EB8305322303EB0515B5FBF1F5BD
:1022D000B6FBF1F605F0F00505EB0615B2FBF0F6DE
:1022E000B2FBF0F0B0FBF1F06FF01802504306EBD8
:1022F000800003EB0010B0FBF1F0216800F00F004C
:102300002844886070BD0000003801402DE9F0418C
:10231000984617460E460446069D1DE0681C1BD0D5
:102320002DB1FEF773FCA0EB0800A84214D9206879
:10233000C16821F4D071C1602068416921F00101B8
:102340004161202084F8390084F83A00002084F8A4
:1023500038000320BDE8F0812068006836EA0000FC
:1023600004D00020B842D9D00020F3E70120F9E7DB
:1023700070B52E4C20680168C943890602D46FF0FD
:102380002001016020680068C043C0064CD4274883
:10239000FFF70FFA2068C16821F40051C16023489B
:1023A0004030006840682149C0F1FF0085B2C43167
:1023B0002A4601F1FF00FDF7C5FE1C481CA1C430F0
:1023C000FDF7F2FE30B119492A46C4311A48FDF72B
:1023D000B9FE03E0FF211848FDF7DBFE13494FF675
:1023E000FF73C4312A46A1F14000FFF719FB0F48E3
:1023F000FF21C430FDF7CDFE2068C16841F40051D3
:10240000C1600A49FF22C4310848FFF7A3FA0B480C
:102410000168064AFF23C432A2F18400FEF794FA51
:1024200021686FF01000086070BD000018010020E6
:102430002B49504400000000DA030020043801401A
:1024400008B5012000F036F81648416941F0010155
:1024500041614069802200F0010000901248A0F123
:102460004001486341621149016000214160C0E9B7
:1024700002120161416181619101C161FEF736FA89
:102480000949FF228431A1F1C400FFF763FA08482B
:102490000168054A01B0FF23843203485DF804EB6C
:1024A000FEF752BA001002405801002058000240C6
:1024B0000438014030B400210C224FF4E1330128EC
:1024C0000DD0022816D10D480B4C0460C0E9013133
:1024D000C1600161C0E9052130BCFFF797B9074829
:1024E000074C84380460C0E90131C1600161C0E972
:1024F0000521F1E730BC7047004400409C010020FA
:1025000000380140FEE700000FB4054B10B503A9E9
:10251000044A029800F028F810BC5DF814FB000093
:1025200021270008040100200907090E002804DB08
:1025300000F1E02080F80014704700F00F0000F177
:10254000E02080F8141D704702E008C8121F08C17F
:10255000002AFAD170477047002001E001C1121F24
:10256000002AFBD1704700002DE9FF4F8BB09A463F
:102570000F460546002606E025280BD052460D9949
:1025800090476D1C761C28780028F5D10FB0304696
:10259000BDE8F08F0024A0460122604900E004431A
:1025A00015F8013F203B02FA03F00842F7D12878E2
:1025B0002E2817D115F8010F44F004042A280ED054
:1025C0006FF02F022878A0F1300109290AD808EB12
:1025D000880102EB410100EB01086D1CF2E757F89E
:1025E000048B6D1C287869283ED006DC0028CDD0ED
:1025F00063280BD0642804D136E0732810D07528E6
:102600004BD052460D999047761C85E017F8040B85
:102610008DF8000000208DF80100E946012003E05C
:1026200057F8049B4FF0FF3061074FF0000401D4CE
:102630000AE0641C44450DDA8442FADB19F8041000
:102640000029F6D106E0641C8442FCDB19F8041072
:102650000029F8D1264404E019F8010B52460D99DF
:102660009047641EF8D257E001CF4FF00A0B0028C4
:1026700002DA40422D2102E0210504D52B218DF8FC
:102680002410012103E0E10705D02021F7E70DF137
:10269000200908910CE00021F9E701CF4FF00A0B67
:1026A000F9E75946FDF75EFF01F1300209F8012D07
:1026B0000028F6D1ADEB090000F1200B600701D432
:1026C0004FF00108D84502DDA8EB0B0000E0002028
:1026D0008046002406E009A85246005D0D99904707
:1026E000641C761C08988442F5DB04E030205246D6
:1026F0000D999047761CB8F10001A8F10108F5DCAE
:1027000005E019F8010B52460D999047761CBBF174
:102710000001ABF1010BF4DC6D1C34E7092801006A
:1027200008B54FF6FF738DF8000001226946024894
:10273000FFF776F908BD000018010020FEF774FAD3
:10274000FFF75CFB0220FFF7B5FEFFF779FEFEF70F
:102750001FF8FFF721FAFFF7B5FA26A0FFF7D4FE1E
:1027600000210220FFF704FB00210120FFF700FBFE
:102770004FF4FA70FEF748F9B4210220FFF7F8FA97
:10278000B4210120FFF7F4FA05210420FFF7A8FB8C
:1027900021480068016841F0010101601F4800689C
:1027A000016841F0010101601DA0FFF7ADFE00BF0F
:1027B000FFF750FAFDF7A8FFFFF7BCF9102809D082
:1027C000112805D020280CD02128F1D1B42109E00E
:1027D000002100E0B4210120FFF780FA5A210120F6
:1027E00005E000210220FFF779FA5A210220FFF7C5
:1027F00075FADDE72A2A2A2A2A2A2A2A2A2A2A2AAE
:102800002A5265616479212A2A2A2A2A2A2A2A2A0E
:102810002A2A2A2A0A000000DC0400206C05002075
:102820002A2A2A2A2A2A2A2A2A2A2A2A2A4F4B21CB
:102830002A2A2A2A2A2A2A2A2A2A2A2A2A00000076
:102840000000000000000000010203040607080960
:10285000000000000102030441542B43574A415039
:102860003D22333134222C22313131313131313179
:10287000220D0A0041542B43495053544152543DB8
:1028800022544350222C223139322E3136382E3404
:10289000332E31222C383038300D0A0041542B436E
:1028A000495053544152543D22544350222C22311A
:1028B00030312E3133332E3139362E313230222C15
:1028C000313838330D0A000041542B4357514150E1
:1028D0000D0A000041542B43495053544154555361
:1028E0000D0A000041540D0A00000000434C4F53F4
:1028F000454400004F4B00006C696E6B20697320EB
:102900006E6F742076616C69640000002C290008E9
:10291000000000200801000048250008342A0008B3
:1029200008010020C8080000582500080000000029
:1029300000000000E4280008582800087428000857
:102940009C280008C8280008F4280008F828000877
:10295000EC280008D428000800C0003ED0003E3D0E
:1029600031303E3D31313E3D32303E3D32313E2010
:102970000200003E90030001013E107600044D511C
:10298000545404C2003C002731323334357C736523
:10299000637572656D6F64653D332C7369676E6D29
:1029A0006574686F643D686D6163736861317C0054
:1029B000174C616D705F53776974636826613131BC
:1029C00039704851454653720028434342303642DD
:1029D0004532333846324638304635464346453030
:1029E0003534314435443046354532384635324445
:1029F00030323E822A000100252F61313139704882
:102A000051454653722F4C616D705F537769746303
:102A1000682F757365722F6F6E6F726F6666003EFA
:102A20000100000010000000000000000024F4007D
:042A300000000000A2
:04000005080000ED02
:00000001FF
