:020000040800F2
:10000000F007002001010008D313000817130008AF
:10001000D1130008F10100080D18000800000000CD
:10002000000000000000000000000000D7130008DE
:100030001D02000800000000D5130008D9130008B5
:100040001B0100081B0100081B0100081B01000820
:100050001B0100081B0100081B0100081B01000810
:100060001B0100081B0100081B0100081B01000800
:100070001B0100081B0100081B0100081B010008F0
:100080001B0100081B0100081B0100081B010008E0
:100090001B0100081B0100081B0100081B010008D0
:1000A0001B0100081B0100081B0100081B010008C0
:1000B000211400081B0100081B0100081B01000897
:1000C0001B0100081B0100081B0100081B010008A0
:1000D0001B010008BD1600081B0100081B010008D9
:1000E0001B0100081B0100081B010008DFF80CD0F1
:1000F00000F06CF800480047451A0008F00700209F
:100100000648804706480047FEE7FEE7FEE7FEE7B1
:10011000FEE7FEE7FEE7FEE7FEE7FEE71F14000846
:10012000ED00000840EA01039B0703D009E008C97D
:10013000121F08C0042AFAD203E011F8013B00F8AC
:10014000013B521EF9D27047D2B201E000F8012BF8
:10015000491EFBD270470022F6E710B513460A4647
:1001600004461946FFF7F0FF204610BD30B505469E
:100170002A460B4612F8010B13F8014B08B1A042B6
:10018000F8D01CB1002802D06D1CF1E7284630BD24
:10019000421C10F8011B0029FBD1801A704730B5B2
:1001A0000B46014600202022012409E021FA02F535
:1001B0009D4205D303FA02F5491B04FA02F52844CF
:1001C000151EA2F10102F1DC30BD0000064C074D06
:1001D00006E0E06840F0010394E807009847103417
:1001E000AC42F6D3FFF786FF381B0008581B000807
:1001F000FEE730B590F840500124AC40C56B6C6010
:10020000046863604368102B036803D0996000683A
:10021000C26030BD9A600068C16030BD70470000A8
:1002200070B505460424641E14F0FF0407D0294667
:100230000448FFF79BFF0028F5D0012070BD002087
:1002400070BD0000A702002070B5012001F0B6FAD1
:100250004FF6FF752B46092217A11A4801F002F844
:10026000194C4FF47A7632462169206800F056F82E
:100270002B460F2215A1134800F0F4FF324617A1B8
:10028000E06800F04BF82B460F2215A10D4800F056
:10029000E9FF40F2DC5216A1606800F03FF82B46FF
:1002A000132217A1074800F0DDFF7200A068BDE827
:1002B000704018A100F032B84154B2E2CAD43A0DED
:1002C0000A0000006801002004000020B6CFBFAA89
:1002D000B5B1C7B0C1ACBDD33A0D0A004F4B000059
:1002E000C1ACBDD357494649C8C8B5E33A0D0A0069
:1002F0005749464920434F4E4E454354454400001C
:10030000C1ACBDD3B0A2C0EFD4C6B7FECEF1C6F724
:100310003A0D0A00434F4E4E454354002DE9F0413B
:1003200015460E460746FFF733FF0424FF210C480D
:10033000FFF711FF39460BA001F06AFA284600F0DA
:10034000C5F8641EE4B204D33046FFF769FF002805
:10035000F0D0BDE8F041FF210148FFF7FCBE0000EE
:10036000A702002025730000704710B590F82110F7
:100370000022022905D00421816380F82020012079
:1003800010BD01680B6823F00E030B6001680B6859
:1003900023F001030B6090F84030C46B012101FA97
:1003A00003F3636080F8211080F82020104610BD10
:1003B00030B528B308C8134914221944B1FBF2F12F
:1003C0008900C16310498163022141771A6843F6AD
:1003D000F0718A43D0E900142143D0E902452C434F
:1003E0002143046921434469214384692143114322
:1003F000196000214163012242770177084630BD30
:10040000012030BDF8FFFDBF0000024070B504467A
:1004100090F82000002501280CD0012084F820004D
:1004200094F821600020012E06D084F820000225D7
:10043000284670BD022070BD022684F82160A063AA
:100440002068066826F0010606602046FFF7D1FE08
:100450002068016841F001010160E9E770B50446D8
:1004600090F82000002501280CD0012084F82000FD
:1004700094F821600020012E06D084F82000022587
:10048000284670BD022070BD022684F82160A0635A
:100490002068066826F0010606602046FFF7A9FEE0
:1004A000E06A00282068016802D041F00E0106E0F1
:1004B00021F0040101602068016841F00A01016037
:1004C0002068016841F001010160D9E770B5044678
:1004D00000F0FEF80546601C02D004480078044491
:1004E00000F0F6F8401BA042FAD370BDC000002017
:1004F0002DE9F84FDFF8B891002409F1040A0AF158
:10050000040B23460F270BF1040EC9E00125A5407B
:100510002A40AA427DD1674ED1F804C0ACEB060850
:10052000B44532D014DCBCF1030F3AD009DCBCF185
:10053000000F2AD0BCF1010F1CD0BCF1020F31D149
:100540001DE0BCF1110F17D0BCF1120F2AD119E038
:10055000B8F5881F19D006DCB8F5803F15D0B8F57E
:10056000801F1FD111E0B8F5001F0ED0B8F5041F91
:1005700018D10AE0CB6815E0CB681B1D12E0CB68F0
:1005800008330FE0CB680C330CE08B682BB1012BE8
:100590004FF0080303D0456104E0042302E0056145
:1005A00000E00023FF2A01D8064601E000F104061E
:1005B0004FEA840501D9A5F12005D6F8008007FA95
:1005C00005FC28EA0C0803FA05F548EA0508C6F810
:1005D00000804D68ED0062D5374DAE6946F00106EA
:1005E000AE61AD6924F0030605F001050095334DB9
:1005F00006EB050CDCF80850A607360F07FA06F8DC
:1006000025EA0805DFF8B880404503D14FF000081F
:1006100017E044E0DFF8AC80404502D14FF001081C
:100620000FE0DFF8A480404502D14FF0020808E057
:10063000DFF89880404502D14FF0030801E04FF009
:10064000040808FA06F848EA0508CCF808804D685E
:10065000D9F80060ED034D4601D5164300E09643FE
:100660002E604D68DAF80060AD03554601D516439B
:1006700000E096432E604D68DBF80060ED025D46B9
:1006800001D5164300E096432E604D68DEF8006009
:10069000AD02754601D5164300E096432E60641CFA
:1006A0000D682A46E5407FF431AFBDE8F88F0000C1
:1006B0000004014000001110001002400000014041
:1006C00000080140000C01400010014000140140EE
:1006D0000148806870470000C0000020024881681F
:1006E0000278114481607047C0000020074810B5AF
:1006F000016841F010010160032000F073F8002050
:1007000000F006F800F024F8002010BD00200240A0
:1007100070B50D4D04464FF47A712878B1FBF0F0B6
:100720000A490968B1FBF0F000F0EAFA48B9102C68
:1007300007D200222146501E00F034F800206C60E1
:1007400070BD012070BD0000C0000020CC00002062
:100750000B4808B5816941F001018161816901F0AF
:1007600001010091C16941F08051C161C06900F08F
:10077000805000900348416821F0E061416008BD6D
:100780000010024000000140002809DB00F01F02B9
:10079000012191404009800000F1E020C0F80011E3
:1007A00070470000F0B40E4B1B680C46C3F30223E5
:1007B000C3F10705042D00D90425191D072901D20D
:1007C000002300E0DB1E012606FA05F1491E214048
:1007D00099409E40761E16403143F0BC01F028B887
:1007E0000CED00E0064900F0070208684FF6FF0331
:1007F000184040EA0220034A104308607047000096
:100800000CED00E00000FA052DE9F0470F46050069
:1008100061D0434E306800F00700B84209D230681A
:1008200020F0070038433060306800F00700B8421D
:1008300051D128683B4C810712D5400703D5606829
:1008400040F4E06060602878000703D5606840F4F9
:10085000605060606068A96820F0F0000843606044
:100860002878C00728D06868012810D0216802289D
:1008700010D0890700292EDA616821F003010143B5
:100880006160FFF725FF804641F288390DE021685D
:100890008903EFE78901EDE7FFF71AFFA0EB0801F5
:1008A000494502D90320BDE8F0876068696800F017
:1008B0000C00B0EB810FEFD1306800F00700B842B8
:1008C0000BD9306820F0070038433060306800F002
:1008D0000700B84201D00120E5E72878400705D598
:1008E0006068E96820F4E0600843606028780007E9
:1008F00006D56068296920F4605040EAC100606054
:1009000000F038F86168084AC1F30311515CC8402F
:100910000649086006480068FFF7FAFE0020C2E7B3
:100920000020024000100240981A0008CC0000206D
:10093000C40000200448054900684968044AC1F31E
:100940000221515CC8407047CC00002000100240DA
:10095000A81A00080448054900684968044AC1F318
:10096000C221515CC8407047CC00002000100240FA
:10097000A81A000812A185B00FC98DE80F0014A0B5
:10098000144A006804905168134801F00C03042BCA
:1009900010D0082B0ED1C1F38343C9031DF8030007
:1009A0000AD5516804AAC1F34041515C0A4A504338
:1009B000B0FBF1F005B0704708494843FAE7000082
:1009C00002030405060708090A0B0C0D0E0F101090
:1009D000010200000010024000127A0000093D00F0
:1009E0002DE9F84F040070D02078C04DC00749D0E1
:1009F0006868C0F38100012807D06868C0F38100EF
:100A0000022809D16868C00306D52868800339D553
:100A100060680028E7D035E06068B0F5803F0BD013
:100A200010B1B0F5A02F11D0286820F480302860D4
:100A3000286820F4802002E0286840F48030286094
:100A4000606890B1FFF744FE06460AE0286840F46B
:100A500080202860F0E700BFFFF73AFE801B642883
:100A600073D828688003F7D50CE0FFF731FE0646FF
:100A700005E000BFFFF72CFE801B6428F0D8286833
:100A80008003F7D420789A4E80074FF001094FF089
:100A9000000839D5686810F00C0F07D06868C0F3FB
:100AA0008100022809D16868C00306D4286880073D
:100AB00014D52069012808D110E02069B0B1C6F82A
:100AC0000090FFF705FE074605E00AE1FFF700FE8C
:100AD000C01B0228C4D828688007F7D52868616938
:100AE00020F0F80040EAC10028600DE0C6F8008060
:100AF000FFF7EEFD074604E0FFF7EAFDC01B022802
:100B000023D828688007F7D4207800072CD57948A7
:100B1000A169D9B1C0F80090FFF7DAFD074604E0FB
:100B2000FFF7D6FDC01B02280FD8686A8007F7D5EB
:100B300071484FF4FA510068B0FBF1F0009000BF2B
:100B40000098411E0091FAD20EE080E0C0F80080CB
:100B5000FFF7BEFD074604E0FFF7BAFDC01B022801
:100B600075D8686A8007F7D42078400760D5E869AF
:100B70000027C00008D4E86940F08050E861E869C7
:100B8000012700F0805000905C480168C90513D42B
:100B90000168834641F480710160FFF799FD824648
:100BA00006E000BFFFF794FDA0EB0A0064284ED8D2
:100BB000DBF80000C005F5D5E06801280AD008B1CF
:100BC000052813D0286A20F001002862286A20F046
:100BD000040002E0286A40F001002862E06841F267
:100BE000883B98B1FFF774FD82460BE0286A40F01D
:100BF00004002862EEE700BFFFF76AFDA0EB0A01E0
:100C000059455AD8286A8007F6D50CE0FFF760FDF1
:100C1000824605E0FFF75CFDA0EB0A0159454CD880
:100C2000286A8007F6D41FB1E86920F08050E86197
:100C3000E06988B36968C1F38101022944D00228C0
:100C4000C6F8608004D0FFF743FD044638E034E086
:100C5000FFF73EFD074604E0FFF73AFDC01B022800
:100C60002BD828688001F7D4206AB0F5803F05D1E1
:100C70006868A16820F4003008436860D4E908017E
:100C80000843696821F4741108436860C6F86090ED
:100C9000FFF71EFD044606E025E000BFFFF718FD44
:100CA000001B022809D828688001F7D51BE000BF87
:100CB000FFF70EFD001B022802D90320BDE8F88FC4
:100CC00028688001F4D40EE00128F7D06868226A11
:100CD00000F48031914204D1616A00F470108842BE
:100CE00001D00120EAE70020E8E700000010024000
:100CF0000000424280044242CC00002000700040CC
:100D000010B5401EB0F1807F01D3012010BD4FF01F
:100D1000E02460610F21601700F08AFD0020A061CF
:100D200007202061002010BD7047704710B50400F7
:100D300003D094F83D0010B107E0012010BD002061
:100D400084F83C00204600F01FF8022084F83D00A3
:100D5000211D206800F06AFB012084F8460084F819
:100D60003E0084F83F0084F8400084F8410084F895
:100D7000420084F8430084F8440084F8450084F875
:100D80003D00002010BD000008B50068B0F1804FA4
:100D900012D10A48C16941F00101C161C069032251
:100DA00000F00100009000211C20FFF7FBFCBDE8D3
:100DB00008401C20FFF7E8BC08BD000000100240FE
:100DC00090F83D10012901D001207047022180F8E0
:100DD0003D1000680B49884208D0B0F1804F05D023
:100DE0000949884202D00949884204D1816801F04A
:100DF0000701062903D0016841F0010101600020CC
:100E000070470000002C0140000400400008004032
:100E100090F83D10012901D001207047022180F88F
:100E20003D100168CA6842F00102CA6000680B49BF
:100E3000884208D0B0F1804F05D00949884202D0DD
:100E40000849884204D1816801F00701062903D0CE
:100E5000016841F00101016000207047002C014051
:100E60000004004000080040704770B50446006868
:100E700001694FF00005C943890715D4C168C9430A
:100E8000890711D4E91E016101202077206880695B
:100E90008007204602D0FFF7E7FF04E000F098F853
:100EA000204600F096F8257720680169C943490774
:100EB00017D4C168C943490713D46FF00401016115
:100EC000022020772068806910F4407F204602D0FD
:100ED000FFF7CAFF04E000F07BF8204600F079F845
:100EE000257720680169C943090716D4C168C94339
:100EF000090712D46FF008010161042020772068EF
:100F0000C0698007204602D0FFF7AEFF04E000F082
:100F10005FF8204600F05DF8257720680169C94335
:100F2000C90617D4C168C943C90613D46FF01001AC
:100F30000161082020772068C06910F4407F2046B6
:100F400002D0FFF791FF04E000F042F8204600F0E5
:100F500040F8257720680169C943C90708D1C168ED
:100F6000C943C90704D1891E0161204600F032F847
:100F700020680169C943090609D4C168C943090643
:100F800005D46FF0800101612046FFF7CDFE206897
:100F90000169C943490609D4C168C943490605D452
:100FA0006FF040010161204600F024F820680169DB
:100FB000C94389060BD4C168C943890607D46FF0B9
:100FC000200101612046BDE87040FFF7AEBE70BD54
:100FD000704770470068B0F1804F06D10349012087
:100FE00008700349C01E0968086170471800002096
:100FF000A8030020704710B504460068416994F8C2
:101000003920C1F3C011212A0BD151B1416921F01E
:1010100080014161206B08B1FFF7A7F9204600F07D
:10102000B5FA2068416994F83A20C1F38011222A68
:101030000BD151B1416921F040014161606B08B1B0
:10104000FFF793F9204600F093FA002010BD704797
:1010500070B5040004D094F83900002510B106E002
:10106000012070BD84F83850204600F023F8242079
:1010700084F839002068C16821F40051C16020461D
:1010800000F08EFA2068016921F490410161206826
:10109000416921F02A0141612068C16841F4005191
:1010A000C160E563202084F8390084F83A0000200C
:1010B00070BD00002DE9F84F064600683149324CFA
:1010C000324D334F4FF0000B4FF002094FF0010A41
:1010D0004FF0030888422CD1A06940F48040A06101
:1010E000A06900F480400090A06940F00400A06175
:1010F000A06900F0040000904815C5F80C8085E850
:10110000010629463846FFF7F3F92015C5E9000B1B
:1011100029463846FFF7ECF93068C16841F0100104
:10112000C1602520FFF730FB012200212520FFF7B9
:1011300039FB18493068884221D1E06940F4003019
:10114000E061E06900F400300090A06940F0040024
:10115000A061A0690D4900F0040000900420C5F8CA
:101160000C8085E801063846FFF7C2F90820C5E97A
:10117000000B3846BDE8F84F0449FFF7B9B9BDE8A0
:10118000F88F00000038014000100240D400002019
:101190000008014000440040F8B5044690F83A00C9
:1011A00020283CD1C1B3BAB394F83800012836D016
:1011B000012084F83800A162A2850025E563222081
:1011C00084F83A00636B17489862636B1648D862DC
:1011D000636B16481863606B134645630846666B7D
:1011E000216802463046091DFFF738F9206801687A
:1011F0004168009184F83850C16841F48071C16041
:101200002068416941F0010141612068416941F074
:10121000400141610020F8BDFFE70120FBE702200B
:10122000F9E700002B15000867150008E114000815
:101230000068084988420BD142680849064B088873
:101240001A54401C80B20880FF2801D90020088071
:101250007047000000380140A80100200000002075
:10126000704700002DE9F843044690F839001F4606
:1012700016460D4620284CD1C5B1BEB194F83800B1
:10128000012846D0012084F838004FF00008C4F847
:101290003C80212084F83900FFF71AFAA6848146A1
:1012A000E684A068B0F5805F03D004E00120BDE8CB
:1012B000F883206928B12E465FF0000584F8388055
:1012C0000EE00026FAE78021204600F0C5F9A0B91B
:1012D000AEB116F8010B21684860E08C401EE08436
:1012E000E08C4B464FF0000200970028EBD14FF006
:1012F0004001204600F0B0F930B10320D7E735F8BF
:10130000020BC0F30800E6E7202084F83900002033
:10131000CDE70220CBE7FEE70146022000F0BCB893
:10132000094910B50020087007487821401C00F0DA
:101330000DF805482C21793000F008F8BDE8104080
:101340001E20FFF7E9BF0000180000202DE9F0473C
:1013500078268846814616A704244FF4FA7541463C
:1013600014A000F055FA2846FFF7B0F8641E14F0F8
:10137000FF0404D03846FEF753FF0028EFD00424C2
:1013800010A74FF6FF784346324649460F48FFF70D
:1013900069FF2846FFF79AF8641E14F0FF0404D092
:1013A0003846FEF73DFF0028EDD0BDE8F08700008D
:1013B0004F4B000041542B43495053454E443D256B
:1013C000640D0A0053454E44204F4B00E4000020BA
:1013D000FEE7704770477047FFF780B910B590B0CF
:1013E00028216846FEF7B7FE14210AA8FEF7B3FECF
:1013F0000220009001200490102000240590079402
:101400006846FFF7EDFA0F20CDE90A040C940D941D
:1014100000210AA80E94FFF7F7F910B010BD70472D
:101420000148FFF722BD0000A8030020F0B50268C4
:10143000164B174C174D4FF08047984205D0B842D5
:1014400003D0A04201D0A84203D122F070064A681E
:101450003243984205D0B84203D0A04201D0A842FE
:1014600003D122F44074CA6822434C6922F08002FE
:10147000224302608A68C2620A688262984201D18D
:101480000969016301214161F0BD0000002C0140A8
:10149000000400400008004010B502281DD142079A
:1014A0000E4801EBC10303EB0111026049F63F4214
:1014B00042600022531E03EBC101C0E90221026118
:1014C000FFF734FC08B1FEF74FFF0448FFF7A0FC1C
:1014D000BDE810400148FFF773BC10BDA803002011
:1014E00070B5446A2068406994F83910C0F3C010A0
:1014F0000025212904D118B1E584204600F046F8E2
:101500002068406994F83A10C0F38010222904D171
:1015100018B1E585204600F02BF8E06B40F0100094
:10152000E0632046FFF793FD70BD10B50146406AA9
:1015300009680968890613D40021C1850168CA6851
:1015400022F48072CA6001684A6922F001024A618D
:1015500001684A6922F040024A61202180F83A106D
:10156000FFF766FE10BD10B5406AFFF779FE10BDAB
:101570000168CA6822F49072CA6001684A6922F060
:1015800001024A61202180F83A1070470168CA6858
:1015900022F0C002CA60202180F839107047000094
:1015A00070B5044600680169E26821F440511143B6
:1015B00001612169A0680843616908432168CA681C
:1015C00041F20C639A430243CA6020684169A269F0
:1015D00021F44071114341611E492068884202D1C3
:1015E000FFF7B8F901E0FFF7A5F900EBC00101EB47
:1015F0000012606864218000B2FBF0F3B3FBF1F3EA
:101600006FF018067343B2FBF0F5B2FBF0F605EB92
:101610008305322303EB0515B5FBF1F5B6FBF1F6B7
:1016200005F0F00505EB0615B2FBF0F6B2FBF0F0A5
:10163000B0FBF1F06FF01802504306EB800003EBB3
:101640000010B0FBF1F0216800F00F002844886022
:1016500070BD0000003801402DE9F0419846174662
:101660000E460446069D1DE0681C1BD02DB1FFF7F9
:101670002FF8A0EB0800A84214D92068C16821F413
:10168000D071C1602068416921F0010141612020D1
:1016900084F8390084F83A00002084F838000320E8
:1016A000BDE8F0812068006836EA000004D0002020
:1016B000B842D9D00020F3E70120F9E770B5204CFB
:1016C00020680168C943890602D46FF020010160D7
:1016D00020680068C043C00631D41948FFF78BFC6E
:1016E00017484030006840681549C0F1FF0085B2D6
:1016F000C4312A4601F1FF00FEF714FD10494FF6F0
:10170000FF73C4312A46A1F14000FFF7ABFD0C483E
:10171000FF21C430FEF71FFD0949FF22C4310848EC
:10172000FFF73AFD07480168054AFF23C432A2F1DA
:101730008400FEF76BFE21686FF01000086070BD3A
:10174000E40000200438014008B5012000F036F81C
:101750001648416941F0010141614069802200F071
:10176000010000901248A0F1400148634162114914
:10177000016000214160C0E90212016141618161A3
:101780009101C161FEF714FE0949FF228431A1F1E4
:10179000C400FFF701FD08480168054A01B0FF23B6
:1017A000843203485DF804EBFEF730BE00100240BF
:1017B00024010020580002400438014030B40021C8
:1017C0000C224FF4E13301280DD0022816D10D4828
:1017D0000B4C0460C0E90131C1600161C0E9052121
:1017E00030BCFFF735BC0748074C84380460C0E9BB
:1017F0000131C1600161C0E90521F1E730BC7047EA
:10180000004400406801002000380140FEE700006D
:101810000FB4054B10B503A9044A029800F028F84C
:1018200010BC5DF814FB0000291A0008D00000204D
:101830000907090E002804DB00F1E02080F80014FD
:10184000704700F00F0000F1E02080F8141D704791
:1018500002E008C8121F08C1002AFAD17047704779
:10186000002001E001C1121F002AFBD170470000D7
:101870002DE9FF4F8BB09A460F460546002606E03D
:1018800025280BD052460D9990476D1C761C287860
:101890000028F5D10FB03046BDE8F08F0024A046F7
:1018A0000122604900E0044315F8013F203B02FAA1
:1018B00003F00842F7D128782E2817D115F8010F28
:1018C00044F004042A280ED06FF02F022878A0F1EB
:1018D000300109290AD808EB880102EB410100EB2D
:1018E00001086D1CF2E757F8048B6D1C28786928F5
:1018F0003ED006DC0028CDD063280BD0642804D16C
:1019000036E0732810D075284BD052460D99904779
:10191000761C85E017F8040B8DF8000000208DF888
:101920000100E946012003E057F8049B4FF0FF3027
:1019300061074FF0000401D40AE0641C44450DDA4D
:101940008442FADB19F804100029F6D106E0641C81
:101950008442FCDB19F804100029F8D1264404E085
:1019600019F8010B52460D999047641EF8D257E0C2
:1019700001CF4FF00A0B002802DA40422D2102E08D
:10198000210504D52B218DF82410012103E0E10766
:1019900005D02021F7E70DF1200908910CE0002186
:1019A000F9E701CF4FF00A0BF9E75946FEF7F7FBCD
:1019B00001F1300209F8012D0028F6D1ADEB090044
:1019C00000F1200B600701D44FF00108D84502DD7B
:1019D000A8EB0B0000E000208046002406E009A8E8
:1019E0005246005D0D999047641C761C089884420D
:1019F000F5DB04E0302052460D999047761CB8F193
:101A00000001A8F10108F5DC05E019F8010B5246C8
:101A10000D999047761CBBF10001ABF1010BF4DC92
:101A20006D1C34E70928010008B54FF6FF738DF8E7
:101A30000000012269460248FFF714FC08BD0000BF
:101A4000E4000020FEF752FEFFF7C8FC0220FFF77B
:101A5000B5FEFFF779FEFEF7F7FBFFF761FC4FF6E7
:101A6000FF73062207A10948FFF7FCFB084C00257D
:101A700020780028FCD002210648FFF767FC25707B
:101A8000F6E70000526561647921000068010020DA
:101A900018000020BD000020000000000000000031
:101AA0000102030406070809000000000102030404
:101AB00041542B43574A41503D226D79786C767AD8
:101AC0007A74222C223132333435363738220D0ADB
:101AD0000000000041542B43495053544152543D9F
:101AE00022544350222C22613131397048514546ED
:101AF00053722E696F742D61732D6D7174742E6322
:101B00006E2D7368616E676861692E616C697975A5
:101B10006E63732E636F6D222C313838330D0A00DB
:101B200041542B43575141500D0A000041540D0AB6
:101B3000000000004F4B0000581B00080000002070
:101B4000D4000000501800082C1C0008D40000200D
:101B50001C07000060180008000000002C1B000893
:101B6000B01A0008D41A0008201B0008341B000813
:101B700000107600044D51545404C2003C0027313B
:101B8000323334357C7365637572656D6F64653DA2
:101B9000332C7369676E6D6574686F643D686D6141
:101BA00063736861317C00174C616D705F537769B6
:101BB000746368266131313970485145465372006B
:101BC0002843434230364245323338463246383075
:101BD0004635464346453035343144354430463544
:101BE000453238463532443032822A000100252FF2
:101BF00061313139704851454653722F4C616D70D7
:101C00005F5377697463682F757365722F6F6E6F9A
:101C1000726F666600C00000010000001000000046
:0C1C2000000000000024F40000000000A0
:04000005080000ED02
:00000001FF
